{
  "contractName": "KyberRewardLocker",
  "abi": [
    {
      "inputs": [
        {
          "internalType": "address",
          "name": "_admin",
          "type": "address"
        }
      ],
      "stateMutability": "nonpayable",
      "type": "constructor"
    },
    {
      "anonymous": false,
      "inputs": [
        {
          "indexed": false,
          "internalType": "address",
          "name": "newAdmin",
          "type": "address"
        },
        {
          "indexed": false,
          "internalType": "address",
          "name": "previousAdmin",
          "type": "address"
        }
      ],
      "name": "AdminClaimed",
      "type": "event"
    },
    {
      "anonymous": false,
      "inputs": [
        {
          "indexed": true,
          "internalType": "address",
          "name": "rewardContract",
          "type": "address"
        },
        {
          "indexed": true,
          "internalType": "contract IERC20Ext",
          "name": "token",
          "type": "address"
        },
        {
          "indexed": false,
          "internalType": "bool",
          "name": "isAdded",
          "type": "bool"
        }
      ],
      "name": "RewardContractAdded",
      "type": "event"
    },
    {
      "anonymous": false,
      "inputs": [
        {
          "indexed": true,
          "internalType": "contract IERC20Ext",
          "name": "token",
          "type": "address"
        },
        {
          "indexed": false,
          "internalType": "uint64",
          "name": "vestingDuration",
          "type": "uint64"
        }
      ],
      "name": "SetVestingDuration",
      "type": "event"
    },
    {
      "anonymous": false,
      "inputs": [
        {
          "indexed": false,
          "internalType": "address",
          "name": "pendingAdmin",
          "type": "address"
        }
      ],
      "name": "TransferAdminPending",
      "type": "event"
    },
    {
      "anonymous": false,
      "inputs": [
        {
          "indexed": true,
          "internalType": "contract IERC20Ext",
          "name": "token",
          "type": "address"
        },
        {
          "indexed": true,
          "internalType": "address",
          "name": "beneficiary",
          "type": "address"
        },
        {
          "indexed": false,
          "internalType": "uint256",
          "name": "vestedQuantity",
          "type": "uint256"
        },
        {
          "indexed": false,
          "internalType": "uint256",
          "name": "index",
          "type": "uint256"
        }
      ],
      "name": "Vested",
      "type": "event"
    },
    {
      "anonymous": false,
      "inputs": [
        {
          "indexed": true,
          "internalType": "contract IERC20Ext",
          "name": "token",
          "type": "address"
        },
        {
          "indexed": true,
          "internalType": "address",
          "name": "beneficiary",
          "type": "address"
        },
        {
          "indexed": false,
          "internalType": "uint256",
          "name": "startBlock",
          "type": "uint256"
        },
        {
          "indexed": false,
          "internalType": "uint256",
          "name": "endBlock",
          "type": "uint256"
        },
        {
          "indexed": false,
          "internalType": "uint256",
          "name": "quantity",
          "type": "uint256"
        },
        {
          "indexed": false,
          "internalType": "uint256",
          "name": "index",
          "type": "uint256"
        }
      ],
      "name": "VestingEntryCreated",
      "type": "event"
    },
    {
      "anonymous": false,
      "inputs": [
        {
          "indexed": true,
          "internalType": "uint256",
          "name": "index",
          "type": "uint256"
        },
        {
          "indexed": true,
          "internalType": "contract IERC20Ext",
          "name": "token",
          "type": "address"
        },
        {
          "indexed": true,
          "internalType": "address",
          "name": "beneficiary",
          "type": "address"
        },
        {
          "indexed": false,
          "internalType": "uint256",
          "name": "quantity",
          "type": "uint256"
        }
      ],
      "name": "VestingEntryQueued",
      "type": "event"
    },
    {
      "inputs": [
        {
          "internalType": "address",
          "name": "",
          "type": "address"
        },
        {
          "internalType": "contract IERC20Ext",
          "name": "",
          "type": "address"
        }
      ],
      "name": "accountEscrowedBalance",
      "outputs": [
        {
          "internalType": "uint256",
          "name": "",
          "type": "uint256"
        }
      ],
      "stateMutability": "view",
      "type": "function"
    },
    {
      "inputs": [
        {
          "internalType": "address",
          "name": "",
          "type": "address"
        },
        {
          "internalType": "contract IERC20Ext",
          "name": "",
          "type": "address"
        }
      ],
      "name": "accountVestedBalance",
      "outputs": [
        {
          "internalType": "uint256",
          "name": "",
          "type": "uint256"
        }
      ],
      "stateMutability": "view",
      "type": "function"
    },
    {
      "inputs": [],
      "name": "admin",
      "outputs": [
        {
          "internalType": "address",
          "name": "",
          "type": "address"
        }
      ],
      "stateMutability": "view",
      "type": "function"
    },
    {
      "inputs": [],
      "name": "claimAdmin",
      "outputs": [],
      "stateMutability": "nonpayable",
      "type": "function"
    },
    {
      "inputs": [],
      "name": "pendingAdmin",
      "outputs": [
        {
          "internalType": "address",
          "name": "",
          "type": "address"
        }
      ],
      "stateMutability": "view",
      "type": "function"
    },
    {
      "inputs": [
        {
          "internalType": "address",
          "name": "newAdmin",
          "type": "address"
        }
      ],
      "name": "transferAdmin",
      "outputs": [],
      "stateMutability": "nonpayable",
      "type": "function"
    },
    {
      "inputs": [
        {
          "internalType": "address",
          "name": "newAdmin",
          "type": "address"
        }
      ],
      "name": "transferAdminQuickly",
      "outputs": [],
      "stateMutability": "nonpayable",
      "type": "function"
    },
    {
      "inputs": [
        {
          "internalType": "contract IERC20Ext",
          "name": "",
          "type": "address"
        }
      ],
      "name": "vestingDurationPerToken",
      "outputs": [
        {
          "internalType": "uint256",
          "name": "",
          "type": "uint256"
        }
      ],
      "stateMutability": "view",
      "type": "function"
    },
    {
      "inputs": [
        {
          "internalType": "contract IERC20Ext",
          "name": "token",
          "type": "address"
        },
        {
          "internalType": "address",
          "name": "_rewardContract",
          "type": "address"
        }
      ],
      "name": "addRewardsContract",
      "outputs": [],
      "stateMutability": "nonpayable",
      "type": "function"
    },
    {
      "inputs": [
        {
          "internalType": "contract IERC20Ext",
          "name": "token",
          "type": "address"
        },
        {
          "internalType": "address",
          "name": "_rewardContract",
          "type": "address"
        }
      ],
      "name": "removeRewardsContract",
      "outputs": [],
      "stateMutability": "nonpayable",
      "type": "function"
    },
    {
      "inputs": [
        {
          "internalType": "contract IERC20Ext",
          "name": "token",
          "type": "address"
        },
        {
          "internalType": "uint64",
          "name": "_vestingDuration",
          "type": "uint64"
        }
      ],
      "name": "setVestingDuration",
      "outputs": [],
      "stateMutability": "nonpayable",
      "type": "function"
    },
    {
      "inputs": [
        {
          "internalType": "contract IERC20Ext",
          "name": "token",
          "type": "address"
        },
        {
          "internalType": "address",
          "name": "account",
          "type": "address"
        },
        {
          "internalType": "uint256",
          "name": "quantity",
          "type": "uint256"
        }
      ],
      "name": "lock",
      "outputs": [],
      "stateMutability": "payable",
      "type": "function"
    },
    {
      "inputs": [
        {
          "internalType": "contract IERC20Ext[]",
          "name": "tokens",
          "type": "address[]"
        }
      ],
      "name": "vestCompletedSchedulesForMultipleTokens",
      "outputs": [
        {
          "internalType": "uint256[]",
          "name": "vestedAmounts",
          "type": "uint256[]"
        }
      ],
      "stateMutability": "nonpayable",
      "type": "function"
    },
    {
      "inputs": [
        {
          "internalType": "contract IERC20Ext[]",
          "name": "tokens",
          "type": "address[]"
        },
        {
          "internalType": "uint256[][]",
          "name": "indices",
          "type": "uint256[][]"
        }
      ],
      "name": "vestScheduleForMultipleTokensAtIndices",
      "outputs": [
        {
          "internalType": "uint256[]",
          "name": "vestedAmounts",
          "type": "uint256[]"
        }
      ],
      "stateMutability": "nonpayable",
      "type": "function"
    },
    {
      "inputs": [
        {
          "internalType": "contract IERC20Ext",
          "name": "token",
          "type": "address"
        },
        {
          "internalType": "address",
          "name": "account",
          "type": "address"
        },
        {
          "internalType": "uint256",
          "name": "quantity",
          "type": "uint256"
        },
        {
          "internalType": "uint256",
          "name": "startBlock",
          "type": "uint256"
        }
      ],
      "name": "lockWithStartBlock",
      "outputs": [],
      "stateMutability": "payable",
      "type": "function"
    },
    {
      "inputs": [
        {
          "internalType": "contract IERC20Ext",
          "name": "token",
          "type": "address"
        }
      ],
      "name": "vestCompletedSchedules",
      "outputs": [
        {
          "internalType": "uint256",
          "name": "",
          "type": "uint256"
        }
      ],
      "stateMutability": "nonpayable",
      "type": "function"
    },
    {
      "inputs": [
        {
          "internalType": "contract IERC20Ext",
          "name": "token",
          "type": "address"
        },
        {
          "internalType": "uint256[]",
          "name": "indexes",
          "type": "uint256[]"
        }
      ],
      "name": "vestScheduleAtIndices",
      "outputs": [
        {
          "internalType": "uint256",
          "name": "",
          "type": "uint256"
        }
      ],
      "stateMutability": "nonpayable",
      "type": "function"
    },
    {
      "inputs": [
        {
          "internalType": "contract IERC20Ext",
          "name": "token",
          "type": "address"
        },
        {
          "internalType": "uint256",
          "name": "startIndex",
          "type": "uint256"
        },
        {
          "internalType": "uint256",
          "name": "endIndex",
          "type": "uint256"
        }
      ],
      "name": "vestSchedulesInRange",
      "outputs": [
        {
          "internalType": "uint256",
          "name": "",
          "type": "uint256"
        }
      ],
      "stateMutability": "nonpayable",
      "type": "function"
    },
    {
      "inputs": [
        {
          "internalType": "address",
          "name": "account",
          "type": "address"
        },
        {
          "internalType": "contract IERC20Ext",
          "name": "token",
          "type": "address"
        }
      ],
      "name": "numVestingSchedules",
      "outputs": [
        {
          "internalType": "uint256",
          "name": "",
          "type": "uint256"
        }
      ],
      "stateMutability": "view",
      "type": "function"
    },
    {
      "inputs": [
        {
          "internalType": "address",
          "name": "account",
          "type": "address"
        },
        {
          "internalType": "contract IERC20Ext",
          "name": "token",
          "type": "address"
        },
        {
          "internalType": "uint256",
          "name": "index",
          "type": "uint256"
        }
      ],
      "name": "getVestingScheduleAtIndex",
      "outputs": [
        {
          "components": [
            {
              "internalType": "uint64",
              "name": "startBlock",
              "type": "uint64"
            },
            {
              "internalType": "uint64",
              "name": "endBlock",
              "type": "uint64"
            },
            {
              "internalType": "uint128",
              "name": "quantity",
              "type": "uint128"
            },
            {
              "internalType": "uint128",
              "name": "vestedQuantity",
              "type": "uint128"
            }
          ],
          "internalType": "struct IKyberRewardLocker.VestingSchedule",
          "name": "",
          "type": "tuple"
        }
      ],
      "stateMutability": "view",
      "type": "function"
    },
    {
      "inputs": [
        {
          "internalType": "address",
          "name": "account",
          "type": "address"
        },
        {
          "internalType": "contract IERC20Ext",
          "name": "token",
          "type": "address"
        }
      ],
      "name": "getVestingSchedules",
      "outputs": [
        {
          "components": [
            {
              "internalType": "uint64",
              "name": "startBlock",
              "type": "uint64"
            },
            {
              "internalType": "uint64",
              "name": "endBlock",
              "type": "uint64"
            },
            {
              "internalType": "uint128",
              "name": "quantity",
              "type": "uint128"
            },
            {
              "internalType": "uint128",
              "name": "vestedQuantity",
              "type": "uint128"
            }
          ],
          "internalType": "struct IKyberRewardLocker.VestingSchedule[]",
          "name": "schedules",
          "type": "tuple[]"
        }
      ],
      "stateMutability": "view",
      "type": "function"
    },
    {
      "inputs": [
        {
          "internalType": "contract IERC20Ext",
          "name": "token",
          "type": "address"
        }
      ],
      "name": "getRewardContractsPerToken",
      "outputs": [
        {
          "internalType": "address[]",
          "name": "rewardContracts",
          "type": "address[]"
        }
      ],
      "stateMutability": "view",
      "type": "function"
    }
  ],
  "bytecode": "0x60806040523480156200001157600080fd5b5060405162004c8b38038062004c8b83398181016040528101906200003791906200013b565b80600073ffffffffffffffffffffffffffffffffffffffff168173ffffffffffffffffffffffffffffffffffffffff161415620000dc576040517f08c379a00000000000000000000000000000000000000000000000000000000081526004018080602001828103825260078152602001807f61646d696e20300000000000000000000000000000000000000000000000000081525060200191505060405180910390fd5b806000806101000a81548173ffffffffffffffffffffffffffffffffffffffff021916908373ffffffffffffffffffffffffffffffffffffffff1602179055505050620001b5565b60008151905062000135816200019b565b92915050565b6000602082840312156200014e57600080fd5b60006200015e8482850162000124565b91505092915050565b600062000174826200017b565b9050919050565b600073ffffffffffffffffffffffffffffffffffffffff82169050919050565b620001a68162000167565b8114620001b257600080fd5b50565b614ac680620001c56000396000f3fe6080604052600436106101355760003560e01c806377f50f97116100ab578063bbd8a3281161006f578063bbd8a32814610454578063c33fddf814610491578063cb1d086b146104ce578063f793d77e146104f7578063f851a44014610520578063fdfaaa051461054b57610135565b806377f50f971461037e5780637acc8678146103955780639059aa6a146103be578063a5d21e31146103fb578063aaf543851461041757610135565b80634c9d00cc116100fd5780634c9d00cc146102595780634d4f3d9314610282578063679f7f77146102bf5780636e732b70146102fc57806375829def146103395780637750c9f01461036257610135565b80630a3b7e311461013a5780630f5636c31461017757806326782247146101b45780632f50bd72146101df5780633b5bfa8b1461021c575b600080fd5b34801561014657600080fd5b50610161600480360381019061015c9190613c46565b610588565b60405161016e91906146b4565b60405180910390f35b34801561018357600080fd5b5061019e60048036038101906101999190613e66565b61072c565b6040516101ab91906146cf565b60405180910390f35b3480156101c057600080fd5b506101c9610aac565b6040516101d691906144b8565b60405180910390f35b3480156101eb57600080fd5b5061020660048036038101906102019190613c0a565b610ad2565b60405161021391906144f5565b60405180910390f35b34801561022857600080fd5b50610243600480360381019061023e9190613c0a565b610d76565b60405161025091906146cf565b60405180910390f35b34801561026557600080fd5b50610280600480360381019061027b9190613d78565b610d9b565b005b34801561028e57600080fd5b506102a960048036038101906102a49190613cda565b610f56565b6040516102b69190614517565b60405180910390f35b3480156102cb57600080fd5b506102e660048036038101906102e19190613c0a565b6110af565b6040516102f391906146cf565b60405180910390f35b34801561030857600080fd5b50610323600480360381019061031e9190613c0a565b611139565b60405161033091906146cf565b60405180910390f35b34801561034557600080fd5b50610360600480360381019061035b9190613be1565b61115e565b005b61037c60048036038101906103779190613db4565b611353565b005b34801561038a57600080fd5b5061039361136b565b005b3480156103a157600080fd5b506103bc60048036038101906103b79190613be1565b611581565b005b3480156103ca57600080fd5b506103e560048036038101906103e09190613c95565b611800565b6040516103f29190614517565b60405180910390f35b61041560048036038101906104109190613e03565b6118b1565b005b34801561042357600080fd5b5061043e60048036038101906104399190613d4f565b61208b565b60405161044b91906146cf565b60405180910390f35b34801561046057600080fd5b5061047b60048036038101906104769190613d4f565b6120a3565b60405161048891906144d3565b60405180910390f35b34801561049d57600080fd5b506104b860048036038101906104b39190613eba565b6121ea565b6040516104c591906146cf565b60405180910390f35b3480156104da57600080fd5b506104f560048036038101906104f09190613f09565b6122c9565b005b34801561050357600080fd5b5061051e60048036038101906105199190613d78565b61242a565b005b34801561052c57600080fd5b5061053561266e565b60405161054291906144b8565b60405180910390f35b34801561055757600080fd5b50610572600480360381019061056d9190613d4f565b612692565b60405161057f91906146cf565b60405180910390f35b610590613a03565b600360008573ffffffffffffffffffffffffffffffffffffffff1673ffffffffffffffffffffffffffffffffffffffff16815260200190815260200160002060008473ffffffffffffffffffffffffffffffffffffffff1673ffffffffffffffffffffffffffffffffffffffff16815260200190815260200160002060010160008381526020019081526020016000206040518060800160405290816000820160009054906101000a900467ffffffffffffffff1667ffffffffffffffff1667ffffffffffffffff1681526020016000820160089054906101000a900467ffffffffffffffff1667ffffffffffffffff1667ffffffffffffffff1681526020016000820160109054906101000a90046fffffffffffffffffffffffffffffffff166fffffffffffffffffffffffffffffffff166fffffffffffffffffffffffffffffffff1681526020016001820160009054906101000a90046fffffffffffffffffffffffffffffffff166fffffffffffffffffffffffffffffffff166fffffffffffffffffffffffffffffffff168152505090509392505050565b600080600360003373ffffffffffffffffffffffffffffffffffffffff1673ffffffffffffffffffffffffffffffffffffffff16815260200190815260200160002060008573ffffffffffffffffffffffffffffffffffffffff1673ffffffffffffffffffffffffffffffffffffffff16815260200190815260200160002090506000816000015490506000805b8551811015610a9557828682815181106107d057fe5b602002602001015110610818576040517f08c379a000000000000000000000000000000000000000000000000000000000815260040161080f90614554565b60405180910390fd5b600084600101600088848151811061082c57fe5b602002602001015181526020019081526020016000206040518060800160405290816000820160009054906101000a900467ffffffffffffffff1667ffffffffffffffff1667ffffffffffffffff1681526020016000820160089054906101000a900467ffffffffffffffff1667ffffffffffffffff1667ffffffffffffffff1681526020016000820160109054906101000a90046fffffffffffffffffffffffffffffffff166fffffffffffffffffffffffffffffffff166fffffffffffffffffffffffffffffffff1681526020016001820160009054906101000a90046fffffffffffffffffffffffffffffffff166fffffffffffffffffffffffffffffffff166fffffffffffffffffffffffffffffffff168152505090506000610952826129af565b90506000811415610964575050610a88565b6109956109908284606001516fffffffffffffffffffffffffffffffff16612af490919063ffffffff16565b612b7c565b8660010160008a86815181106109a757fe5b6020026020010151815260200190815260200160002060010160006101000a8154816fffffffffffffffffffffffffffffffff02191690836fffffffffffffffffffffffffffffffff160217905550610a098185612af490919063ffffffff16565b93503373ffffffffffffffffffffffffffffffffffffffff168973ffffffffffffffffffffffffffffffffffffffff167f6d06f0a463d80b43fe6cd0b79c61bb2790cfe898790e69828f25e6e12886e178838b8781518110610a6757fe5b6020026020010151604051610a7d9291906146ea565b60405180910390a350505b80806001019150506107ba565b50610aa08682612bef565b80935050505092915050565b600160009054906101000a900473ffffffffffffffffffffffffffffffffffffffff1681565b60606000600360008573ffffffffffffffffffffffffffffffffffffffff1673ffffffffffffffffffffffffffffffffffffffff16815260200190815260200160002060008473ffffffffffffffffffffffffffffffffffffffff1673ffffffffffffffffffffffffffffffffffffffff1681526020019081526020016000206000015490508067ffffffffffffffff81118015610b6f57600080fd5b50604051908082528060200260200182016040528015610ba957816020015b610b96613a03565b815260200190600190039081610b8e5790505b50915060005b81811015610d6e57600360008673ffffffffffffffffffffffffffffffffffffffff1673ffffffffffffffffffffffffffffffffffffffff16815260200190815260200160002060008573ffffffffffffffffffffffffffffffffffffffff1673ffffffffffffffffffffffffffffffffffffffff16815260200190815260200160002060010160008281526020019081526020016000206040518060800160405290816000820160009054906101000a900467ffffffffffffffff1667ffffffffffffffff1667ffffffffffffffff1681526020016000820160089054906101000a900467ffffffffffffffff1667ffffffffffffffff1667ffffffffffffffff1681526020016000820160109054906101000a90046fffffffffffffffffffffffffffffffff166fffffffffffffffffffffffffffffffff166fffffffffffffffffffffffffffffffff1681526020016001820160009054906101000a90046fffffffffffffffffffffffffffffffff166fffffffffffffffffffffffffffffffff166fffffffffffffffffffffffffffffffff1681525050838281518110610d5657fe5b60200260200101819052508080600101915050610baf565b505092915050565b6005602052816000526040600020602052806000526040600020600091509150505481565b60008054906101000a900473ffffffffffffffffffffffffffffffffffffffff1673ffffffffffffffffffffffffffffffffffffffff163373ffffffffffffffffffffffffffffffffffffffff1614610e5c576040517f08c379a000000000000000000000000000000000000000000000000000000000815260040180806020018281038252600a8152602001807f6f6e6c792061646d696e0000000000000000000000000000000000000000000081525060200191505060405180910390fd5b610ead81600260008573ffffffffffffffffffffffffffffffffffffffff1673ffffffffffffffffffffffffffffffffffffffff168152602001908152602001600020612f6890919063ffffffff16565b610eec576040517f08c379a0000000000000000000000000000000000000000000000000000000008152600401610ee3906145b4565b60405180910390fd5b8173ffffffffffffffffffffffffffffffffffffffff168173ffffffffffffffffffffffffffffffffffffffff167f88a8c998079a07d6a1e59a32ce0c359a00e4c94ce7a6068350a9574e7e0f993d6000604051610f4a9190614539565b60405180910390a35050565b6060828290508585905014610fa0576040517f08c379a0000000000000000000000000000000000000000000000000000000008152600401610f9790614654565b60405180910390fd5b8484905067ffffffffffffffff81118015610fba57600080fd5b50604051908082528060200260200182016040528015610fe95781602001602082028036833780820191505090505b50905060005b858590508110156110a65761108186868381811061100957fe5b905060200201602081019061101e9190613d4f565b85858481811061102a57fe5b905060200281019061103c9190614773565b80806020026020016040519081016040528093929190818152602001838360200280828437600081840152601f19601f8201169050808301925050505050505061072c565b82828151811061108d57fe5b6020026020010181815250508080600101915050610fef565b50949350505050565b6000600360008473ffffffffffffffffffffffffffffffffffffffff1673ffffffffffffffffffffffffffffffffffffffff16815260200190815260200160002060008373ffffffffffffffffffffffffffffffffffffffff1673ffffffffffffffffffffffffffffffffffffffff16815260200190815260200160002060000154905092915050565b6004602052816000526040600020602052806000526040600020600091509150505481565b60008054906101000a900473ffffffffffffffffffffffffffffffffffffffff1673ffffffffffffffffffffffffffffffffffffffff163373ffffffffffffffffffffffffffffffffffffffff161461121f576040517f08c379a000000000000000000000000000000000000000000000000000000000815260040180806020018281038252600a8152602001807f6f6e6c792061646d696e0000000000000000000000000000000000000000000081525060200191505060405180910390fd5b600073ffffffffffffffffffffffffffffffffffffffff168173ffffffffffffffffffffffffffffffffffffffff1614156112c2576040517f08c379a000000000000000000000000000000000000000000000000000000000815260040180806020018281038252600b8152602001807f6e65772061646d696e203000000000000000000000000000000000000000000081525060200191505060405180910390fd5b7f3b81caf78fa51ecbc8acb482fd7012a277b428d9b80f9d156e8a54107496cc4081604051808273ffffffffffffffffffffffffffffffffffffffff16815260200191505060405180910390a180600160006101000a81548173ffffffffffffffffffffffffffffffffffffffff021916908373ffffffffffffffffffffffffffffffffffffffff16021790555050565b611366838383611361612f98565b6118b1565b505050565b3373ffffffffffffffffffffffffffffffffffffffff16600160009054906101000a900473ffffffffffffffffffffffffffffffffffffffff1673ffffffffffffffffffffffffffffffffffffffff161461142e576040517f08c379a000000000000000000000000000000000000000000000000000000000815260040180806020018281038252600b8152602001807f6e6f742070656e64696e6700000000000000000000000000000000000000000081525060200191505060405180910390fd5b7f65da1cfc2c2e81576ad96afb24a581f8e109b7a403b35cbd3243a1c99efdb9ed600160009054906101000a900473ffffffffffffffffffffffffffffffffffffffff1660008054906101000a900473ffffffffffffffffffffffffffffffffffffffff16604051808373ffffffffffffffffffffffffffffffffffffffff1681526020018273ffffffffffffffffffffffffffffffffffffffff1681526020019250505060405180910390a1600160009054906101000a900473ffffffffffffffffffffffffffffffffffffffff166000806101000a81548173ffffffffffffffffffffffffffffffffffffffff021916908373ffffffffffffffffffffffffffffffffffffffff1602179055506000600160006101000a81548173ffffffffffffffffffffffffffffffffffffffff021916908373ffffffffffffffffffffffffffffffffffffffff160217905550565b60008054906101000a900473ffffffffffffffffffffffffffffffffffffffff1673ffffffffffffffffffffffffffffffffffffffff163373ffffffffffffffffffffffffffffffffffffffff1614611642576040517f08c379a000000000000000000000000000000000000000000000000000000000815260040180806020018281038252600a8152602001807f6f6e6c792061646d696e0000000000000000000000000000000000000000000081525060200191505060405180910390fd5b600073ffffffffffffffffffffffffffffffffffffffff168173ffffffffffffffffffffffffffffffffffffffff1614156116e5576040517f08c379a00000000000000000000000000000000000000000000000000000000081526004018080602001828103825260078152602001807f61646d696e20300000000000000000000000000000000000000000000000000081525060200191505060405180910390fd5b7f3b81caf78fa51ecbc8acb482fd7012a277b428d9b80f9d156e8a54107496cc4081604051808273ffffffffffffffffffffffffffffffffffffffff16815260200191505060405180910390a17f65da1cfc2c2e81576ad96afb24a581f8e109b7a403b35cbd3243a1c99efdb9ed8160008054906101000a900473ffffffffffffffffffffffffffffffffffffffff16604051808373ffffffffffffffffffffffffffffffffffffffff1681526020018273ffffffffffffffffffffffffffffffffffffffff1681526020019250505060405180910390a1806000806101000a81548173ffffffffffffffffffffffffffffffffffffffff021916908373ffffffffffffffffffffffffffffffffffffffff16021790555050565b60608282905067ffffffffffffffff8111801561181c57600080fd5b5060405190808252806020026020018201604052801561184b5781602001602082028036833780820191505090505b50905060005b838390508110156118aa5761188584848381811061186b57fe5b90506020020160208101906118809190613d4f565b612692565b82828151811061189157fe5b6020026020010181815250508080600101915050611851565b5092915050565b8361190333600260008473ffffffffffffffffffffffffffffffffffffffff1673ffffffffffffffffffffffffffffffffffffffff168152602001908152602001600020612fa090919063ffffffff16565b611942576040517f08c379a000000000000000000000000000000000000000000000000000000000815260040161193990614634565b60405180910390fd5b60008311611985576040517f08c379a000000000000000000000000000000000000000000000000000000000815260040161197c90614674565b60405180910390fd5b600073ffffffffffffffffffffffffffffffffffffffff168573ffffffffffffffffffffffffffffffffffffffff161415611a01578234146119fc576040517f08c379a00000000000000000000000000000000000000000000000000000000081526004016119f3906145d4565b60405180910390fd5b611a2f565b611a2e3330858873ffffffffffffffffffffffffffffffffffffffff16612fd0909392919063ffffffff16565b5b6000600360008673ffffffffffffffffffffffffffffffffffffffff1673ffffffffffffffffffffffffffffffffffffffff16815260200190815260200160002060008773ffffffffffffffffffffffffffffffffffffffff1673ffffffffffffffffffffffffffffffffffffffff16815260200190815260200160002090506000816000015490506000611b0c600660008a73ffffffffffffffffffffffffffffffffffffffff1673ffffffffffffffffffffffffffffffffffffffff1681526020019081526020016000205486612af490919063ffffffff16565b90506000821115611d945760008360010160006001850381526020019081526020016000209050858160000160009054906101000a900467ffffffffffffffff1667ffffffffffffffff16148015611b855750818160000160089054906101000a900467ffffffffffffffff1667ffffffffffffffff16145b15611d9257611bd7611bd2888360000160109054906101000a90046fffffffffffffffffffffffffffffffff166fffffffffffffffffffffffffffffffff16612af490919063ffffffff16565b612b7c565b8160000160106101000a8154816fffffffffffffffffffffffffffffffff02191690836fffffffffffffffffffffffffffffffff160217905550611ca087600460008b73ffffffffffffffffffffffffffffffffffffffff1673ffffffffffffffffffffffffffffffffffffffff16815260200190815260200160002060008c73ffffffffffffffffffffffffffffffffffffffff1673ffffffffffffffffffffffffffffffffffffffff16815260200190815260200160002054612af490919063ffffffff16565b600460008a73ffffffffffffffffffffffffffffffffffffffff1673ffffffffffffffffffffffffffffffffffffffff16815260200190815260200160002060008b73ffffffffffffffffffffffffffffffffffffffff1673ffffffffffffffffffffffffffffffffffffffff168152602001908152602001600020819055508773ffffffffffffffffffffffffffffffffffffffff168973ffffffffffffffffffffffffffffffffffffffff16600185037fa6fd3a57929c9152d86fa5f83c8478f1af480353a0aef0cacc3240d63b5707678a604051611d8191906146cf565b60405180910390a450505050612084565b505b6040518060800160405280611da887613091565b67ffffffffffffffff168152602001611dc083613091565b67ffffffffffffffff168152602001611dd888612b7c565b6fffffffffffffffffffffffffffffffff16815260200160006fffffffffffffffffffffffffffffffff1681525083600101600084815260200190815260200160002060008201518160000160006101000a81548167ffffffffffffffff021916908367ffffffffffffffff16021790555060208201518160000160086101000a81548167ffffffffffffffff021916908367ffffffffffffffff16021790555060408201518160000160106101000a8154816fffffffffffffffffffffffffffffffff02191690836fffffffffffffffffffffffffffffffff16021790555060608201518160010160006101000a8154816fffffffffffffffffffffffffffffffff02191690836fffffffffffffffffffffffffffffffff160217905550905050600182018360000181905550611f9586600460008a73ffffffffffffffffffffffffffffffffffffffff1673ffffffffffffffffffffffffffffffffffffffff16815260200190815260200160002060008b73ffffffffffffffffffffffffffffffffffffffff1673ffffffffffffffffffffffffffffffffffffffff16815260200190815260200160002054612af490919063ffffffff16565b600460008973ffffffffffffffffffffffffffffffffffffffff1673ffffffffffffffffffffffffffffffffffffffff16815260200190815260200160002060008a73ffffffffffffffffffffffffffffffffffffffff1673ffffffffffffffffffffffffffffffffffffffff168152602001908152602001600020819055508673ffffffffffffffffffffffffffffffffffffffff168873ffffffffffffffffffffffffffffffffffffffff167ffb1fd0fee690638acf30008a00d7fc669e970dd6fa8912488ee11171986edabb87848a876040516120789493929190614713565b60405180910390a35050505b5050505050565b60066020528060005260406000206000915090505481565b60606120ec600260008473ffffffffffffffffffffffffffffffffffffffff1673ffffffffffffffffffffffffffffffffffffffff1681526020019081526020016000206130fc565b67ffffffffffffffff8111801561210257600080fd5b506040519080825280602002602001820160405280156121315781602001602082028036833780820191505090505b50905060005b81518110156121e45761219181600260008673ffffffffffffffffffffffffffffffffffffffff1673ffffffffffffffffffffffffffffffffffffffff16815260200190815260200160002061311190919063ffffffff16565b82828151811061219d57fe5b602002602001019073ffffffffffffffffffffffffffffffffffffffff16908173ffffffffffffffffffffffffffffffffffffffff16815250508080600101915050612137565b50919050565b60008183111561222f576040517f08c379a0000000000000000000000000000000000000000000000000000000008152600401612226906145f4565b60405180910390fd5b600060018484030167ffffffffffffffff8111801561224d57600080fd5b5060405190808252806020026020018201604052801561227c5781602001602082028036833780820191505090505b50905060008490505b8381116122b45780828683038151811061229b57fe5b6020026020010181815250508080600101915050612285565b506122bf858261072c565b9150509392505050565b60008054906101000a900473ffffffffffffffffffffffffffffffffffffffff1673ffffffffffffffffffffffffffffffffffffffff163373ffffffffffffffffffffffffffffffffffffffff161461238a576040517f08c379a000000000000000000000000000000000000000000000000000000000815260040180806020018281038252600a8152602001807f6f6e6c792061646d696e0000000000000000000000000000000000000000000081525060200191505060405180910390fd5b8067ffffffffffffffff16600660008473ffffffffffffffffffffffffffffffffffffffff1673ffffffffffffffffffffffffffffffffffffffff168152602001908152602001600020819055508173ffffffffffffffffffffffffffffffffffffffff167f8604b95f1c6f11de3cf58583f6524c5b1aaa150f2391ec1544bb059d751772368260405161241e9190614758565b60405180910390a25050565b60008054906101000a900473ffffffffffffffffffffffffffffffffffffffff1673ffffffffffffffffffffffffffffffffffffffff163373ffffffffffffffffffffffffffffffffffffffff16146124eb576040517f08c379a000000000000000000000000000000000000000000000000000000000815260040180806020018281038252600a8152602001807f6f6e6c792061646d696e0000000000000000000000000000000000000000000081525060200191505060405180910390fd5b6064612534600260008573ffffffffffffffffffffffffffffffffffffffff1673ffffffffffffffffffffffffffffffffffffffff1681526020019081526020016000206130fc565b10612574576040517f08c379a000000000000000000000000000000000000000000000000000000000815260040161256b90614694565b60405180910390fd5b6125c581600260008573ffffffffffffffffffffffffffffffffffffffff1673ffffffffffffffffffffffffffffffffffffffff16815260200190815260200160002061312b90919063ffffffff16565b612604576040517f08c379a00000000000000000000000000000000000000000000000000000000081526004016125fb90614594565b60405180910390fd5b8173ffffffffffffffffffffffffffffffffffffffff168173ffffffffffffffffffffffffffffffffffffffff167f88a8c998079a07d6a1e59a32ce0c359a00e4c94ce7a6068350a9574e7e0f993d60016040516126629190614539565b60405180910390a35050565b60008054906101000a900473ffffffffffffffffffffffffffffffffffffffff1681565b600080600360003373ffffffffffffffffffffffffffffffffffffffff1673ffffffffffffffffffffffffffffffffffffffff16815260200190815260200160002060008473ffffffffffffffffffffffffffffffffffffffff1673ffffffffffffffffffffffffffffffffffffffff16815260200190815260200160002090506000816000015490506000805b828110156129995760008460010160008381526020019081526020016000206040518060800160405290816000820160009054906101000a900467ffffffffffffffff1667ffffffffffffffff1667ffffffffffffffff1681526020016000820160089054906101000a900467ffffffffffffffff1667ffffffffffffffff1667ffffffffffffffff1681526020016000820160109054906101000a90046fffffffffffffffffffffffffffffffff166fffffffffffffffffffffffffffffffff166fffffffffffffffffffffffffffffffff1681526020016001820160009054906101000a90046fffffffffffffffffffffffffffffffff166fffffffffffffffffffffffffffffffff166fffffffffffffffffffffffffffffffff16815250509050806020015167ffffffffffffffff1661285b612f98565b1015612867575061298c565b60006128a882606001516fffffffffffffffffffffffffffffffff1683604001516fffffffffffffffffffffffffffffffff1661315b90919063ffffffff16565b905060008114156128ba57505061298c565b816040015186600101600085815260200190815260200160002060010160006101000a8154816fffffffffffffffffffffffffffffffff02191690836fffffffffffffffffffffffffffffffff1602179055506129208185612af490919063ffffffff16565b93503373ffffffffffffffffffffffffffffffffffffffff168873ffffffffffffffffffffffffffffffffffffffff167f6d06f0a463d80b43fe6cd0b79c61bb2790cfe898790e69828f25e6e12886e17883866040516129819291906146ea565b60405180910390a350505b8080600101915050612720565b506129a48582612bef565b809350505050919050565b6000816020015167ffffffffffffffff166129c8612f98565b10612a1357612a0c82606001516fffffffffffffffffffffffffffffffff1683604001516fffffffffffffffffffffffffffffffff1661315b90919063ffffffff16565b9050612aef565b816000015167ffffffffffffffff16612a2a612f98565b11612a385760009050612aef565b6000612a69836000015167ffffffffffffffff16846020015167ffffffffffffffff1661315b90919063ffffffff16565b90506000836000015167ffffffffffffffff16612a84612f98565b039050612aea84606001516fffffffffffffffffffffffffffffffff16612adc84612ace88604001516fffffffffffffffffffffffffffffffff16866131a590919063ffffffff16565b61322b90919063ffffffff16565b61315b90919063ffffffff16565b925050505b919050565b600080828401905083811015612b72576040517f08c379a000000000000000000000000000000000000000000000000000000000815260040180806020018281038252601b8152602001807f536166654d6174683a206164646974696f6e206f766572666c6f77000000000081525060200191505060405180910390fd5b8091505092915050565b60007001000000000000000000000000000000008210612be7576040517f08c379a00000000000000000000000000000000000000000000000000000000081526004018080602001828103825260278152602001806149f96027913960400191505060405180910390fd5b819050919050565b6000811415612c33576040517f08c379a0000000000000000000000000000000000000000000000000000000008152600401612c2a90614614565b60405180910390fd5b612cc281600460003373ffffffffffffffffffffffffffffffffffffffff1673ffffffffffffffffffffffffffffffffffffffff16815260200190815260200160002060008573ffffffffffffffffffffffffffffffffffffffff1673ffffffffffffffffffffffffffffffffffffffff1681526020019081526020016000205461315b90919063ffffffff16565b600460003373ffffffffffffffffffffffffffffffffffffffff1673ffffffffffffffffffffffffffffffffffffffff16815260200190815260200160002060008473ffffffffffffffffffffffffffffffffffffffff1673ffffffffffffffffffffffffffffffffffffffff16815260200190815260200160002081905550612dd181600560003373ffffffffffffffffffffffffffffffffffffffff1673ffffffffffffffffffffffffffffffffffffffff16815260200190815260200160002060008573ffffffffffffffffffffffffffffffffffffffff1673ffffffffffffffffffffffffffffffffffffffff16815260200190815260200160002054612af490919063ffffffff16565b600560003373ffffffffffffffffffffffffffffffffffffffff1673ffffffffffffffffffffffffffffffffffffffff16815260200190815260200160002060008473ffffffffffffffffffffffffffffffffffffffff1673ffffffffffffffffffffffffffffffffffffffff16815260200190815260200160002081905550600073ffffffffffffffffffffffffffffffffffffffff168273ffffffffffffffffffffffffffffffffffffffff161415612f385760003373ffffffffffffffffffffffffffffffffffffffff1682604051612eac906144a3565b60006040518083038185875af1925050503d8060008114612ee9576040519150601f19603f3d011682016040523d82523d6000602084013e612eee565b606091505b5050905080612f32576040517f08c379a0000000000000000000000000000000000000000000000000000000008152600401612f2990614574565b60405180910390fd5b50612f64565b612f6333828473ffffffffffffffffffffffffffffffffffffffff166132759092919063ffffffff16565b5b5050565b6000612f90836000018373ffffffffffffffffffffffffffffffffffffffff1660001b613317565b905092915050565b600043905090565b6000612fc8836000018373ffffffffffffffffffffffffffffffffffffffff1660001b6133ff565b905092915050565b61308b846323b872dd60e01b858585604051602401808473ffffffffffffffffffffffffffffffffffffffff1681526020018373ffffffffffffffffffffffffffffffffffffffff1681526020018281526020019350505050604051602081830303815290604052907bffffffffffffffffffffffffffffffffffffffffffffffffffffffff19166020820180517bffffffffffffffffffffffffffffffffffffffffffffffffffffffff8381831617835250505050613422565b50505050565b60006801000000000000000082106130f4576040517f08c379a0000000000000000000000000000000000000000000000000000000008152600401808060200182810382526026815260200180614a416026913960400191505060405180910390fd5b819050919050565b600061310a82600001613511565b9050919050565b60006131208360000183613522565b60001c905092915050565b6000613153836000018373ffffffffffffffffffffffffffffffffffffffff1660001b6135a5565b905092915050565b600061319d83836040518060400160405280601e81526020017f536166654d6174683a207375627472616374696f6e206f766572666c6f770000815250613615565b905092915050565b6000808314156131b85760009050613225565b60008284029050828482816131c957fe5b0414613220576040517f08c379a0000000000000000000000000000000000000000000000000000000008152600401808060200182810382526021815260200180614a206021913960400191505060405180910390fd5b809150505b92915050565b600061326d83836040518060400160405280601a81526020017f536166654d6174683a206469766973696f6e206279207a65726f0000000000008152506136d5565b905092915050565b6133128363a9059cbb60e01b8484604051602401808373ffffffffffffffffffffffffffffffffffffffff16815260200182815260200192505050604051602081830303815290604052907bffffffffffffffffffffffffffffffffffffffffffffffffffffffff19166020820180517bffffffffffffffffffffffffffffffffffffffffffffffffffffffff8381831617835250505050613422565b505050565b600080836001016000848152602001908152602001600020549050600081146133f3576000600182039050600060018660000180549050039050600086600001828154811061336257fe5b906000526020600020015490508087600001848154811061337f57fe5b90600052602060002001819055506001830187600101600083815260200190815260200160002081905550866000018054806133b757fe5b600190038181906000526020600020016000905590558660010160008781526020019081526020016000206000905560019450505050506133f9565b60009150505b92915050565b600080836001016000848152602001908152602001600020541415905092915050565b6000613484826040518060400160405280602081526020017f5361666545524332303a206c6f772d6c6576656c2063616c6c206661696c65648152508573ffffffffffffffffffffffffffffffffffffffff1661379b9092919063ffffffff16565b905060008151111561350c578080602001905160208110156134a557600080fd5b810190808051906020019092919050505061350b576040517f08c379a000000000000000000000000000000000000000000000000000000000815260040180806020018281038252602a815260200180614a67602a913960400191505060405180910390fd5b5b505050565b600081600001805490509050919050565b600081836000018054905011613583576040517f08c379a00000000000000000000000000000000000000000000000000000000081526004018080602001828103825260228152602001806149d76022913960400191505060405180910390fd5b82600001828154811061359257fe5b9060005260206000200154905092915050565b60006135b183836133ff565b61360a57826000018290806001815401808255809150506001900390600052602060002001600090919091909150558260000180549050836001016000848152602001908152602001600020819055506001905061360f565b600090505b92915050565b60008383111582906136c2576040517f08c379a00000000000000000000000000000000000000000000000000000000081526004018080602001828103825283818151815260200191508051906020019080838360005b8381101561368757808201518184015260208101905061366c565b50505050905090810190601f1680156136b45780820380516001836020036101000a031916815260200191505b509250505060405180910390fd5b5060008385039050809150509392505050565b60008083118290613781576040517f08c379a00000000000000000000000000000000000000000000000000000000081526004018080602001828103825283818151815260200191508051906020019080838360005b8381101561374657808201518184015260208101905061372b565b50505050905090810190601f1680156137735780820380516001836020036101000a031916815260200191505b509250505060405180910390fd5b50600083858161378d57fe5b049050809150509392505050565b60606137aa84846000856137b3565b90509392505050565b60606137be856139b8565b613830576040517f08c379a000000000000000000000000000000000000000000000000000000000815260040180806020018281038252601d8152602001807f416464726573733a2063616c6c20746f206e6f6e2d636f6e747261637400000081525060200191505060405180910390fd5b6000808673ffffffffffffffffffffffffffffffffffffffff1685876040518082805190602001908083835b6020831061387f578051825260208201915060208101905060208303925061385c565b6001836020036101000a03801982511681845116808217855250505050505090500191505060006040518083038185875af1925050503d80600081146138e1576040519150601f19603f3d011682016040523d82523d6000602084013e6138e6565b606091505b509150915081156138fb5780925050506139b0565b60008151111561390e5780518082602001fd5b836040517f08c379a00000000000000000000000000000000000000000000000000000000081526004018080602001828103825283818151815260200191508051906020019080838360005b8381101561397557808201518184015260208101905061395a565b50505050905090810190601f1680156139a25780820380516001836020036101000a031916815260200191505b509250505060405180910390fd5b949350505050565b60008060007fc5d2460186f7233c927e7db2dcc703c0e500b653ca82273b7bfad8045d85a47060001b9050833f91508082141580156139fa57506000801b8214155b92505050919050565b6040518060800160405280600067ffffffffffffffff168152602001600067ffffffffffffffff16815260200160006fffffffffffffffffffffffffffffffff16815260200160006fffffffffffffffffffffffffffffffff1681525090565b6000613a76613a71846147fb565b6147ca565b90508083825260208201905082856020860282011115613a9557600080fd5b60005b85811015613ac55781613aab8882613bb7565b845260208401935060208301925050600181019050613a98565b5050509392505050565b600081359050613ade8161497a565b92915050565b60008083601f840112613af657600080fd5b8235905067ffffffffffffffff811115613b0f57600080fd5b602083019150836020820283011115613b2757600080fd5b9250929050565b60008083601f840112613b4057600080fd5b8235905067ffffffffffffffff811115613b5957600080fd5b602083019150836020820283011115613b7157600080fd5b9250929050565b600082601f830112613b8957600080fd5b8135613b99848260208601613a63565b91505092915050565b600081359050613bb181614991565b92915050565b600081359050613bc6816149a8565b92915050565b600081359050613bdb816149bf565b92915050565b600060208284031215613bf357600080fd5b6000613c0184828501613acf565b91505092915050565b60008060408385031215613c1d57600080fd5b6000613c2b85828601613acf565b9250506020613c3c85828601613ba2565b9150509250929050565b600080600060608486031215613c5b57600080fd5b6000613c6986828701613acf565b9350506020613c7a86828701613ba2565b9250506040613c8b86828701613bb7565b9150509250925092565b60008060208385031215613ca857600080fd5b600083013567ffffffffffffffff811115613cc257600080fd5b613cce85828601613b2e565b92509250509250929050565b60008060008060408587031215613cf057600080fd5b600085013567ffffffffffffffff811115613d0a57600080fd5b613d1687828801613b2e565b9450945050602085013567ffffffffffffffff811115613d3557600080fd5b613d4187828801613ae4565b925092505092959194509250565b600060208284031215613d6157600080fd5b6000613d6f84828501613ba2565b91505092915050565b60008060408385031215613d8b57600080fd5b6000613d9985828601613ba2565b9250506020613daa85828601613acf565b9150509250929050565b600080600060608486031215613dc957600080fd5b6000613dd786828701613ba2565b9350506020613de886828701613acf565b9250506040613df986828701613bb7565b9150509250925092565b60008060008060808587031215613e1957600080fd5b6000613e2787828801613ba2565b9450506020613e3887828801613acf565b9350506040613e4987828801613bb7565b9250506060613e5a87828801613bb7565b91505092959194509250565b60008060408385031215613e7957600080fd5b6000613e8785828601613ba2565b925050602083013567ffffffffffffffff811115613ea457600080fd5b613eb085828601613b78565b9150509250929050565b600080600060608486031215613ecf57600080fd5b6000613edd86828701613ba2565b9350506020613eee86828701613bb7565b9250506040613eff86828701613bb7565b9150509250925092565b60008060408385031215613f1c57600080fd5b6000613f2a85828601613ba2565b9250506020613f3b85828601613bcc565b9150509250929050565b6000613f518383613f8d565b60208301905092915050565b6000613f6983836143ae565b60808301905092915050565b6000613f818383614467565b60208301905092915050565b613f96816148ee565b82525050565b613fa5816148ee565b82525050565b6000613fb682614857565b613fc0818561489f565b9350613fcb83614827565b8060005b83811015613ffc578151613fe38882613f45565b9750613fee83614878565b925050600181019050613fcf565b5085935050505092915050565b600061401482614862565b61401e81856148b0565b935061402983614837565b8060005b8381101561405a5781516140418882613f5d565b975061404c83614885565b92505060018101905061402d565b5085935050505092915050565b60006140728261486d565b61407c81856148c1565b935061408783614847565b8060005b838110156140b857815161409f8882613f75565b97506140aa83614892565b92505060018101905061408b565b5085935050505092915050565b6140ce81614900565b82525050565b60006140e16016836148dd565b91507f696e76616c6964207363686564756c6520696e646578000000000000000000006000830152602082019050919050565b60006141216010836148dd565b91507f6661696c20746f207472616e73666572000000000000000000000000000000006000830152602082019050919050565b60006141616018836148dd565b91507f5f726577617264436f6e747261637420697320616464656400000000000000006000830152602082019050919050565b60006141a1601a836148dd565b91507f5f726577617264436f6e74726163742069732072656d6f7665640000000000006000830152602082019050919050565b60006141e16011836148dd565b91507f496e76616c6964206d73672e76616c75650000000000000000000000000000006000830152602082019050919050565b60006142216015836148dd565b91507f7374617274496e646578203e20656e64496e64657800000000000000000000006000830152602082019050919050565b60006142616010836148dd565b91507f302076657374696e6720616d6f756e74000000000000000000000000000000006000830152602082019050919050565b60006142a16014836148dd565b91507f6f6e6c792072657761726420636f6e74726163740000000000000000000000006000830152602082019050919050565b60006142e1601f836148dd565b91507f746f6b656e732e6c656e67746820213d20696e64696365732e6c656e677468006000830152602082019050919050565b6000614321600a836148dd565b91507f30207175616e74697479000000000000000000000000000000000000000000006000830152602082019050919050565b60006143616000836148d2565b9150600082019050919050565b600061437b601b836148dd565b91507f726577617264436f6e74726163747320697320746f6f206c6f6e6700000000006000830152602082019050919050565b6080820160008201516143c46000850182614485565b5060208201516143d76020850182614485565b5060408201516143ea6040850182614458565b5060608201516143fd6060850182614458565b50505050565b6080820160008201516144196000850182614485565b50602082015161442c6020850182614485565b50604082015161443f6040850182614458565b5060608201516144526060850182614458565b50505050565b6144618161491e565b82525050565b6144708161495a565b82525050565b61447f8161495a565b82525050565b61448e81614964565b82525050565b61449d81614964565b82525050565b60006144ae82614354565b9150819050919050565b60006020820190506144cd6000830184613f9c565b92915050565b600060208201905081810360008301526144ed8184613fab565b905092915050565b6000602082019050818103600083015261450f8184614009565b905092915050565b600060208201905081810360008301526145318184614067565b905092915050565b600060208201905061454e60008301846140c5565b92915050565b6000602082019050818103600083015261456d816140d4565b9050919050565b6000602082019050818103600083015261458d81614114565b9050919050565b600060208201905081810360008301526145ad81614154565b9050919050565b600060208201905081810360008301526145cd81614194565b9050919050565b600060208201905081810360008301526145ed816141d4565b9050919050565b6000602082019050818103600083015261460d81614214565b9050919050565b6000602082019050818103600083015261462d81614254565b9050919050565b6000602082019050818103600083015261464d81614294565b9050919050565b6000602082019050818103600083015261466d816142d4565b9050919050565b6000602082019050818103600083015261468d81614314565b9050919050565b600060208201905081810360008301526146ad8161436e565b9050919050565b60006080820190506146c96000830184614403565b92915050565b60006020820190506146e46000830184614476565b92915050565b60006040820190506146ff6000830185614476565b61470c6020830184614476565b9392505050565b60006080820190506147286000830187614476565b6147356020830186614476565b6147426040830185614476565b61474f6060830184614476565b95945050505050565b600060208201905061476d6000830184614494565b92915050565b6000808335600160200384360303811261478c57600080fd5b80840192508235915067ffffffffffffffff8211156147aa57600080fd5b6020830192506020820236038313156147c257600080fd5b509250929050565b6000604051905081810181811067ffffffffffffffff821117156147f1576147f0614978565b5b8060405250919050565b600067ffffffffffffffff82111561481657614815614978565b5b602082029050602081019050919050565b6000819050602082019050919050565b6000819050602082019050919050565b6000819050602082019050919050565b600081519050919050565b600081519050919050565b600081519050919050565b6000602082019050919050565b6000602082019050919050565b6000602082019050919050565b600082825260208201905092915050565b600082825260208201905092915050565b600082825260208201905092915050565b600081905092915050565b600082825260208201905092915050565b60006148f98261493a565b9050919050565b60008115159050919050565b6000614917826148ee565b9050919050565b60006fffffffffffffffffffffffffffffffff82169050919050565b600073ffffffffffffffffffffffffffffffffffffffff82169050919050565b6000819050919050565b600067ffffffffffffffff82169050919050565bfe5b614983816148ee565b811461498e57600080fd5b50565b61499a8161490c565b81146149a557600080fd5b50565b6149b18161495a565b81146149bc57600080fd5b50565b6149c881614964565b81146149d357600080fd5b5056fe456e756d657261626c655365743a20696e646578206f7574206f6620626f756e647353616665436173743a2076616c756520646f65736e27742066697420696e203132382062697473536166654d6174683a206d756c7469706c69636174696f6e206f766572666c6f7753616665436173743a2076616c756520646f65736e27742066697420696e20363420626974735361666545524332303a204552433230206f7065726174696f6e20646964206e6f742073756363656564a2646970667358221220aee199a69d90d8907ee93b9c71eadb7dd16f0372602d8c2d4e7baf2aa7f357fd64736f6c63430007060033",
  "immutableReferences": {},
  "source": "// SPDX-License-Identifier: agpl-3.0\r\npragma solidity 0.7.6;\r\npragma abicoder v2;\r\n\r\nimport {IERC20Ext} from './kybernetwork/utils-sc/contracts/IERC20Ext.sol';\r\nimport {SafeMath} from '@openzeppelin/contracts/math/SafeMath.sol';\r\nimport {SafeCast} from '@openzeppelin/contracts/utils/SafeCast.sol';\r\nimport {SafeERC20} from '@openzeppelin/contracts/token/ERC20/SafeERC20.sol';\r\nimport {EnumerableSet} from '@openzeppelin/contracts/utils/EnumerableSet.sol';\r\nimport {PermissionAdmin} from './kybernetwork/utils-sc/contracts/PermissionAdmin.sol';\r\n\r\nimport {IKyberRewardLocker} from '../interfaces/liquidityMining/IKyberRewardLocker.sol';\r\n\r\ncontract KyberRewardLocker is IKyberRewardLocker, PermissionAdmin {\r\n  using SafeMath for uint256;\r\n  using SafeCast for uint256;\r\n\r\n  using SafeERC20 for IERC20Ext;\r\n  using EnumerableSet for EnumerableSet.AddressSet;\r\n\r\n  struct VestingSchedules {\r\n    uint256 length;\r\n    mapping(uint256 => VestingSchedule) data;\r\n  }\r\n\r\n  uint256 private constant MAX_REWARD_CONTRACTS_SIZE = 100;\r\n\r\n  /// @dev whitelist of reward contracts\r\n  mapping(IERC20Ext => EnumerableSet.AddressSet) internal rewardContractsPerToken;\r\n\r\n  /// @dev vesting schedule of an account\r\n  mapping(address => mapping(IERC20Ext => VestingSchedules)) private accountVestingSchedules;\r\n\r\n  /// @dev An account's total escrowed balance per token to save recomputing this for fee extraction purposes\r\n  mapping(address => mapping(IERC20Ext => uint256)) public accountEscrowedBalance;\r\n\r\n  /// @dev An account's total vested reward per token\r\n  mapping(address => mapping(IERC20Ext => uint256)) public accountVestedBalance;\r\n\r\n  /// @dev vesting duration for earch token\r\n  mapping(IERC20Ext => uint256) public vestingDurationPerToken;\r\n\r\n  /* ========== EVENTS ========== */\r\n  event RewardContractAdded(address indexed rewardContract, IERC20Ext indexed token, bool isAdded);\r\n  event SetVestingDuration(IERC20Ext indexed token, uint64 vestingDuration);\r\n\r\n  /* ========== MODIFIERS ========== */\r\n\r\n  modifier onlyRewardsContract(IERC20Ext token) {\r\n    require(rewardContractsPerToken[token].contains(msg.sender), 'only reward contract');\r\n    _;\r\n  }\r\n\r\n  constructor(address _admin) PermissionAdmin(_admin) {}\r\n\r\n  /**\r\n   * @notice Add a whitelisted rewards contract\r\n   */\r\n  function addRewardsContract(IERC20Ext token, address _rewardContract) external onlyAdmin {\r\n    require(\r\n      rewardContractsPerToken[token].length() < MAX_REWARD_CONTRACTS_SIZE,\r\n      'rewardContracts is too long'\r\n    );\r\n    require(rewardContractsPerToken[token].add(_rewardContract), '_rewardContract is added');\r\n\r\n    emit RewardContractAdded(_rewardContract, token, true);\r\n  }\r\n\r\n  /**\r\n   * @notice Remove a whitelisted rewards contract\r\n   */\r\n  function removeRewardsContract(IERC20Ext token, address _rewardContract) external onlyAdmin {\r\n    require(rewardContractsPerToken[token].remove(_rewardContract), '_rewardContract is removed');\r\n\r\n    emit RewardContractAdded(_rewardContract, token, false);\r\n  }\r\n\r\n  function setVestingDuration(IERC20Ext token, uint64 _vestingDuration) external onlyAdmin {\r\n    vestingDurationPerToken[token] = _vestingDuration;\r\n\r\n    emit SetVestingDuration(token, _vestingDuration);\r\n  }\r\n\r\n  function lock(\r\n    IERC20Ext token,\r\n    address account,\r\n    uint256 quantity\r\n  ) external override payable {\r\n    lockWithStartBlock(token, account, quantity, _blockNumber());\r\n  }\r\n\r\n  /**\r\n   * @dev vest all completed schedules for multiple tokens\r\n   */\r\n  function vestCompletedSchedulesForMultipleTokens(IERC20Ext[] calldata tokens)\r\n    external\r\n    override\r\n    returns (uint256[] memory vestedAmounts)\r\n  {\r\n    vestedAmounts = new uint256[](tokens.length);\r\n    for (uint256 i = 0; i < tokens.length; i++) {\r\n      vestedAmounts[i] = vestCompletedSchedules(tokens[i]);\r\n    }\r\n  }\r\n\r\n  /**\r\n   * @dev claim multiple tokens for specific vesting schedule,\r\n   *      if schedule has not ended yet, claiming amounts are linear with vesting blocks\r\n   */\r\n  function vestScheduleForMultipleTokensAtIndices(\r\n    IERC20Ext[] calldata tokens,\r\n    uint256[][] calldata indices\r\n  ) external override returns (uint256[] memory vestedAmounts) {\r\n    require(tokens.length == indices.length, 'tokens.length != indices.length');\r\n    vestedAmounts = new uint256[](tokens.length);\r\n    for (uint256 i = 0; i < tokens.length; i++) {\r\n      vestedAmounts[i] = vestScheduleAtIndices(tokens[i], indices[i]);\r\n    }\r\n  }\r\n\r\n  function lockWithStartBlock(\r\n    IERC20Ext token,\r\n    address account,\r\n    uint256 quantity,\r\n    uint256 startBlock\r\n  ) public override payable onlyRewardsContract(token) {\r\n    require(quantity > 0, '0 quantity');\r\n\r\n    if (token == IERC20Ext(0)) {\r\n      require(msg.value == quantity, 'Invalid msg.value');\r\n    } else {\r\n      // transfer token from reward contract to lock contract\r\n      token.safeTransferFrom(msg.sender, address(this), quantity);\r\n    }\r\n\r\n    VestingSchedules storage schedules = accountVestingSchedules[account][token];\r\n    uint256 schedulesLength = schedules.length;\r\n    uint256 endBlock = startBlock.add(vestingDurationPerToken[token]);\r\n\r\n    // combine with the last schedule if they have the same start & end blocks\r\n    if (schedulesLength > 0) {\r\n      VestingSchedule storage lastSchedule = schedules.data[schedulesLength - 1];\r\n      if (lastSchedule.startBlock == startBlock && lastSchedule.endBlock == endBlock) {\r\n        lastSchedule.quantity = uint256(lastSchedule.quantity).add(quantity).toUint128();\r\n        accountEscrowedBalance[account][token] = accountEscrowedBalance[account][token].add(\r\n          quantity\r\n        );\r\n        emit VestingEntryQueued(schedulesLength - 1, token, account, quantity);\r\n        return;\r\n      }\r\n    }\r\n\r\n    // append new schedule\r\n    schedules.data[schedulesLength] = VestingSchedule({\r\n      startBlock: startBlock.toUint64(),\r\n      endBlock: endBlock.toUint64(),\r\n      quantity: quantity.toUint128(),\r\n      vestedQuantity: 0\r\n    });\r\n    schedules.length = schedulesLength + 1;\r\n    // record total vesting balance of user\r\n    accountEscrowedBalance[account][token] = accountEscrowedBalance[account][token].add(quantity);\r\n\r\n    emit VestingEntryCreated(token, account, startBlock, endBlock, quantity, schedulesLength);\r\n  }\r\n\r\n  /**\r\n   * @dev Allow a user to vest all ended schedules\r\n   */\r\n  function vestCompletedSchedules(IERC20Ext token) public override returns (uint256) {\r\n    VestingSchedules storage schedules = accountVestingSchedules[msg.sender][token];\r\n    uint256 schedulesLength = schedules.length;\r\n\r\n    uint256 totalVesting = 0;\r\n    for (uint256 i = 0; i < schedulesLength; i++) {\r\n      VestingSchedule memory schedule = schedules.data[i];\r\n      if (_blockNumber() < schedule.endBlock) {\r\n        continue;\r\n      }\r\n      uint256 vestQuantity = uint256(schedule.quantity).sub(schedule.vestedQuantity);\r\n      if (vestQuantity == 0) {\r\n        continue;\r\n      }\r\n      schedules.data[i].vestedQuantity = schedule.quantity;\r\n      totalVesting = totalVesting.add(vestQuantity);\r\n\r\n      emit Vested(token, msg.sender, vestQuantity, i);\r\n    }\r\n    _completeVesting(token, totalVesting);\r\n\r\n    return totalVesting;\r\n  }\r\n\r\n  /**\r\n   * @notice Allow a user to vest with specific schedule\r\n   */\r\n  function vestScheduleAtIndices(IERC20Ext token, uint256[] memory indexes)\r\n    public\r\n    override\r\n    returns (uint256)\r\n  {\r\n    VestingSchedules storage schedules = accountVestingSchedules[msg.sender][token];\r\n    uint256 schedulesLength = schedules.length;\r\n    uint256 totalVesting = 0;\r\n    for (uint256 i = 0; i < indexes.length; i++) {\r\n      require(indexes[i] < schedulesLength, 'invalid schedule index');\r\n      VestingSchedule memory schedule = schedules.data[indexes[i]];\r\n      uint256 vestQuantity = _getVestingQuantity(schedule);\r\n      if (vestQuantity == 0) {\r\n        continue;\r\n      }\r\n      schedules.data[indexes[i]].vestedQuantity = uint256(schedule.vestedQuantity)\r\n        .add(vestQuantity)\r\n        .toUint128();\r\n\r\n      totalVesting = totalVesting.add(vestQuantity);\r\n\r\n      emit Vested(token, msg.sender, vestQuantity, indexes[i]);\r\n    }\r\n    _completeVesting(token, totalVesting);\r\n    return totalVesting;\r\n  }\r\n\r\n  function vestSchedulesInRange(\r\n    IERC20Ext token,\r\n    uint256 startIndex,\r\n    uint256 endIndex\r\n  ) public override returns (uint256) {\r\n    require(startIndex <= endIndex, 'startIndex > endIndex');\r\n    uint256[] memory indexes = new uint256[](endIndex - startIndex + 1);\r\n    for (uint256 index = startIndex; index <= endIndex; index++) {\r\n      indexes[index - startIndex] = index;\r\n    }\r\n    return vestScheduleAtIndices(token, indexes);\r\n  }\r\n\r\n  /* ========== VIEW FUNCTIONS ========== */\r\n\r\n  /**\r\n   * @notice The number of vesting dates in an account's schedule.\r\n   */\r\n  function numVestingSchedules(address account, IERC20Ext token)\r\n    external\r\n    override\r\n    view\r\n    returns (uint256)\r\n  {\r\n    return accountVestingSchedules[account][token].length;\r\n  }\r\n\r\n  /**\r\n   * @dev manually get vesting schedule at index\r\n   */\r\n  function getVestingScheduleAtIndex(\r\n    address account,\r\n    IERC20Ext token,\r\n    uint256 index\r\n  ) external override view returns (VestingSchedule memory) {\r\n    return accountVestingSchedules[account][token].data[index];\r\n  }\r\n\r\n  /**\r\n   * @dev Get all schedules for an account.\r\n   */\r\n  function getVestingSchedules(address account, IERC20Ext token)\r\n    external\r\n    override\r\n    view\r\n    returns (VestingSchedule[] memory schedules)\r\n  {\r\n    uint256 schedulesLength = accountVestingSchedules[account][token].length;\r\n    schedules = new VestingSchedule[](schedulesLength);\r\n    for (uint256 i = 0; i < schedulesLength; i++) {\r\n      schedules[i] = accountVestingSchedules[account][token].data[i];\r\n    }\r\n  }\r\n\r\n  function getRewardContractsPerToken(IERC20Ext token)\r\n    external\r\n    view\r\n    returns (address[] memory rewardContracts)\r\n  {\r\n    rewardContracts = new address[](rewardContractsPerToken[token].length());\r\n    for (uint256 i = 0; i < rewardContracts.length; i++) {\r\n      rewardContracts[i] = rewardContractsPerToken[token].at(i);\r\n    }\r\n  }\r\n\r\n  /* ========== INTERNAL FUNCTIONS ========== */\r\n\r\n  function _completeVesting(IERC20Ext token, uint256 totalVesting) internal {\r\n    require(totalVesting != 0, '0 vesting amount');\r\n    accountEscrowedBalance[msg.sender][token] = accountEscrowedBalance[msg.sender][token].sub(\r\n      totalVesting\r\n    );\r\n    accountVestedBalance[msg.sender][token] = accountVestedBalance[msg.sender][token].add(\r\n      totalVesting\r\n    );\r\n\r\n    if (token == IERC20Ext(0)) {\r\n      (bool success, ) = msg.sender.call{value: totalVesting}('');\r\n      require(success, 'fail to transfer');\r\n    } else {\r\n      token.safeTransfer(msg.sender, totalVesting);\r\n    }\r\n  }\r\n\r\n  /**\r\n   * @dev implements linear vesting mechanism\r\n   */\r\n  function _getVestingQuantity(VestingSchedule memory schedule) internal view returns (uint256) {\r\n    if (_blockNumber() >= uint256(schedule.endBlock)) {\r\n      return uint256(schedule.quantity).sub(schedule.vestedQuantity);\r\n    }\r\n    if (_blockNumber() <= uint256(schedule.startBlock)) {\r\n      return 0;\r\n    }\r\n    uint256 lockDuration = uint256(schedule.endBlock).sub(schedule.startBlock);\r\n    uint256 passedDuration = _blockNumber() - uint256(schedule.startBlock);\r\n    return passedDuration.mul(schedule.quantity).div(lockDuration).sub(schedule.vestedQuantity);\r\n  }\r\n\r\n  /**\r\n   * @dev wrap block.number so we can easily mock it\r\n   */\r\n  function _blockNumber() internal virtual view returns (uint256) {\r\n    return block.number;\r\n  }\r\n}",
  "sourcePath": "C:\\Users\\joeln\\Desktop\\NTU\\blockchain\\project\\smartcontract\\contracts\\KyberRewardLocker.sol",
  "compiler": {
    "name": "solc",
    "version": "0.7.6+commit.7338295f.Emscripten.clang"
  },
  "schemaVersion": "3.4.3",
  "updatedAt": "2021-10-11T14:13:33.895Z",
  "devdoc": {
    "kind": "dev",
    "methods": {
      "claimAdmin()": {
        "details": "Allows the pendingAdmin address to finalize the change admin process."
      },
      "getVestingScheduleAtIndex(address,address,uint256)": {
        "details": "manually get vesting schedule at index"
      },
      "getVestingSchedules(address,address)": {
        "details": "Get all schedules for an account."
      },
      "lockWithStartBlock(address,address,uint256,uint256)": {
        "details": "queue a vesting schedule"
      },
      "transferAdmin(address)": {
        "details": "Allows the current admin to set the pendingAdmin address.",
        "params": {
          "newAdmin": "The address to transfer ownership to."
        }
      },
      "transferAdminQuickly(address)": {
        "details": "Allows the current admin to set the admin in one tx. Useful initial deployment.",
        "params": {
          "newAdmin": "The address to transfer ownership to."
        }
      },
      "vestCompletedSchedules(address)": {
        "details": "Allow a user to vest all ended schedules"
      },
      "vestCompletedSchedulesForMultipleTokens(address[])": {
        "details": "vest all completed schedules for multiple tokens"
      },
      "vestScheduleForMultipleTokensAtIndices(address[],uint256[][])": {
        "details": "claim multiple tokens for specific vesting schedule,      if schedule has not ended yet, claiming amounts are linear with vesting blocks"
      },
      "vestSchedulesInRange(address,uint256,uint256)": {
        "details": "claim token for specific vesting schedule from startIndex to endIndex"
      }
    },
    "stateVariables": {
      "accountEscrowedBalance": {
        "details": "An account's total escrowed balance per token to save recomputing this for fee extraction purposes"
      },
      "accountVestedBalance": {
        "details": "An account's total vested reward per token"
      },
      "accountVestingSchedules": {
        "details": "vesting schedule of an account"
      },
      "rewardContractsPerToken": {
        "details": "whitelist of reward contracts"
      },
      "vestingDurationPerToken": {
        "details": "vesting duration for earch token"
      }
    },
    "version": 1
  },
  "userdoc": {
    "kind": "user",
    "methods": {
      "addRewardsContract(address,address)": {
        "notice": "Add a whitelisted rewards contract"
      },
      "numVestingSchedules(address,address)": {
        "notice": "The number of vesting dates in an account's schedule."
      },
      "removeRewardsContract(address,address)": {
        "notice": "Remove a whitelisted rewards contract"
      },
      "vestScheduleAtIndices(address,uint256[])": {
        "notice": "Allow a user to vest with specific schedule"
      }
    },
    "version": 1
  }
}