{
  "contractName": "KyberFairLaunch",
  "abi": [
    {
      "inputs": [
        {
          "internalType": "address",
          "name": "_admin",
          "type": "address"
        },
        {
          "internalType": "address[]",
          "name": "_rewardTokens",
          "type": "address[]"
        },
        {
          "internalType": "contract IKyberRewardLocker",
          "name": "_rewardLocker",
          "type": "address"
        }
      ],
      "stateMutability": "nonpayable",
      "type": "constructor"
    },
    {
      "anonymous": false,
      "inputs": [
        {
          "indexed": true,
          "internalType": "address",
          "name": "stakeToken",
          "type": "address"
        },
        {
          "indexed": true,
          "internalType": "uint32",
          "name": "startBlock",
          "type": "uint32"
        },
        {
          "indexed": true,
          "internalType": "uint32",
          "name": "endBlock",
          "type": "uint32"
        },
        {
          "indexed": false,
          "internalType": "uint256[]",
          "name": "rewardPerBlocks",
          "type": "uint256[]"
        }
      ],
      "name": "AddNewPool",
      "type": "event"
    },
    {
      "anonymous": false,
      "inputs": [
        {
          "indexed": false,
          "internalType": "address",
          "name": "newAdmin",
          "type": "address"
        },
        {
          "indexed": false,
          "internalType": "address",
          "name": "previousAdmin",
          "type": "address"
        }
      ],
      "name": "AdminClaimed",
      "type": "event"
    },
    {
      "anonymous": false,
      "inputs": [
        {
          "indexed": true,
          "internalType": "address",
          "name": "user",
          "type": "address"
        },
        {
          "indexed": true,
          "internalType": "uint256",
          "name": "pid",
          "type": "uint256"
        },
        {
          "indexed": true,
          "internalType": "uint256",
          "name": "blockNumber",
          "type": "uint256"
        },
        {
          "indexed": false,
          "internalType": "uint256",
          "name": "amount",
          "type": "uint256"
        }
      ],
      "name": "Deposit",
      "type": "event"
    },
    {
      "anonymous": false,
      "inputs": [
        {
          "indexed": true,
          "internalType": "address",
          "name": "user",
          "type": "address"
        },
        {
          "indexed": true,
          "internalType": "uint256",
          "name": "pid",
          "type": "uint256"
        },
        {
          "indexed": true,
          "internalType": "uint256",
          "name": "blockNumber",
          "type": "uint256"
        },
        {
          "indexed": false,
          "internalType": "uint256",
          "name": "amount",
          "type": "uint256"
        }
      ],
      "name": "EmergencyWithdraw",
      "type": "event"
    },
    {
      "anonymous": false,
      "inputs": [
        {
          "indexed": true,
          "internalType": "address",
          "name": "user",
          "type": "address"
        },
        {
          "indexed": true,
          "internalType": "uint256",
          "name": "pid",
          "type": "uint256"
        },
        {
          "indexed": true,
          "internalType": "address",
          "name": "rewardToken",
          "type": "address"
        },
        {
          "indexed": false,
          "internalType": "uint256",
          "name": "lockedAmount",
          "type": "uint256"
        },
        {
          "indexed": false,
          "internalType": "uint256",
          "name": "blockNumber",
          "type": "uint256"
        }
      ],
      "name": "Harvest",
      "type": "event"
    },
    {
      "anonymous": false,
      "inputs": [
        {
          "indexed": true,
          "internalType": "uint256",
          "name": "pid",
          "type": "uint256"
        },
        {
          "indexed": true,
          "internalType": "uint32",
          "name": "startBlock",
          "type": "uint32"
        },
        {
          "indexed": true,
          "internalType": "uint32",
          "name": "endBlock",
          "type": "uint32"
        },
        {
          "indexed": false,
          "internalType": "uint256[]",
          "name": "rewardPerBlocks",
          "type": "uint256[]"
        }
      ],
      "name": "RenewPool",
      "type": "event"
    },
    {
      "anonymous": false,
      "inputs": [
        {
          "indexed": false,
          "internalType": "address",
          "name": "pendingAdmin",
          "type": "address"
        }
      ],
      "name": "TransferAdminPending",
      "type": "event"
    },
    {
      "anonymous": false,
      "inputs": [
        {
          "indexed": true,
          "internalType": "uint256",
          "name": "pid",
          "type": "uint256"
        },
        {
          "indexed": true,
          "internalType": "uint32",
          "name": "endBlock",
          "type": "uint32"
        },
        {
          "indexed": false,
          "internalType": "uint256[]",
          "name": "rewardPerBlocks",
          "type": "uint256[]"
        }
      ],
      "name": "UpdatePool",
      "type": "event"
    },
    {
      "anonymous": false,
      "inputs": [
        {
          "indexed": true,
          "internalType": "address",
          "name": "user",
          "type": "address"
        },
        {
          "indexed": true,
          "internalType": "uint256",
          "name": "pid",
          "type": "uint256"
        },
        {
          "indexed": true,
          "internalType": "uint256",
          "name": "blockNumber",
          "type": "uint256"
        },
        {
          "indexed": false,
          "internalType": "uint256",
          "name": "amount",
          "type": "uint256"
        }
      ],
      "name": "Withdraw",
      "type": "event"
    },
    {
      "inputs": [],
      "name": "admin",
      "outputs": [
        {
          "internalType": "address",
          "name": "",
          "type": "address"
        }
      ],
      "stateMutability": "view",
      "type": "function"
    },
    {
      "inputs": [],
      "name": "claimAdmin",
      "outputs": [],
      "stateMutability": "nonpayable",
      "type": "function"
    },
    {
      "inputs": [],
      "name": "pendingAdmin",
      "outputs": [
        {
          "internalType": "address",
          "name": "",
          "type": "address"
        }
      ],
      "stateMutability": "view",
      "type": "function"
    },
    {
      "inputs": [
        {
          "internalType": "address",
          "name": "",
          "type": "address"
        }
      ],
      "name": "poolExists",
      "outputs": [
        {
          "internalType": "bool",
          "name": "",
          "type": "bool"
        }
      ],
      "stateMutability": "view",
      "type": "function"
    },
    {
      "inputs": [],
      "name": "poolLength",
      "outputs": [
        {
          "internalType": "uint256",
          "name": "",
          "type": "uint256"
        }
      ],
      "stateMutability": "view",
      "type": "function"
    },
    {
      "inputs": [],
      "name": "rewardLocker",
      "outputs": [
        {
          "internalType": "contract IKyberRewardLocker",
          "name": "",
          "type": "address"
        }
      ],
      "stateMutability": "view",
      "type": "function"
    },
    {
      "inputs": [
        {
          "internalType": "uint256",
          "name": "",
          "type": "uint256"
        }
      ],
      "name": "rewardTokens",
      "outputs": [
        {
          "internalType": "address",
          "name": "",
          "type": "address"
        }
      ],
      "stateMutability": "view",
      "type": "function"
    },
    {
      "inputs": [
        {
          "internalType": "address",
          "name": "newAdmin",
          "type": "address"
        }
      ],
      "name": "transferAdmin",
      "outputs": [],
      "stateMutability": "nonpayable",
      "type": "function"
    },
    {
      "inputs": [
        {
          "internalType": "address",
          "name": "newAdmin",
          "type": "address"
        }
      ],
      "name": "transferAdminQuickly",
      "outputs": [],
      "stateMutability": "nonpayable",
      "type": "function"
    },
    {
      "stateMutability": "payable",
      "type": "receive"
    },
    {
      "inputs": [
        {
          "internalType": "uint256",
          "name": "rewardTokenIndex",
          "type": "uint256"
        },
        {
          "internalType": "uint256",
          "name": "amount",
          "type": "uint256"
        }
      ],
      "name": "adminWithdraw",
      "outputs": [],
      "stateMutability": "nonpayable",
      "type": "function"
    },
    {
      "inputs": [
        {
          "internalType": "address",
          "name": "_stakeToken",
          "type": "address"
        },
        {
          "internalType": "uint32",
          "name": "_startBlock",
          "type": "uint32"
        },
        {
          "internalType": "uint32",
          "name": "_endBlock",
          "type": "uint32"
        },
        {
          "internalType": "uint256[]",
          "name": "_rewardPerBlocks",
          "type": "uint256[]"
        }
      ],
      "name": "addPool",
      "outputs": [],
      "stateMutability": "nonpayable",
      "type": "function"
    },
    {
      "inputs": [
        {
          "internalType": "uint256",
          "name": "_pid",
          "type": "uint256"
        },
        {
          "internalType": "uint32",
          "name": "_startBlock",
          "type": "uint32"
        },
        {
          "internalType": "uint32",
          "name": "_endBlock",
          "type": "uint32"
        },
        {
          "internalType": "uint256[]",
          "name": "_rewardPerBlocks",
          "type": "uint256[]"
        }
      ],
      "name": "renewPool",
      "outputs": [],
      "stateMutability": "nonpayable",
      "type": "function"
    },
    {
      "inputs": [
        {
          "internalType": "uint256",
          "name": "_pid",
          "type": "uint256"
        },
        {
          "internalType": "uint32",
          "name": "_endBlock",
          "type": "uint32"
        },
        {
          "internalType": "uint256[]",
          "name": "_rewardPerBlocks",
          "type": "uint256[]"
        }
      ],
      "name": "updatePool",
      "outputs": [],
      "stateMutability": "nonpayable",
      "type": "function"
    },
    {
      "inputs": [
        {
          "internalType": "uint256",
          "name": "_pid",
          "type": "uint256"
        },
        {
          "internalType": "uint256",
          "name": "_amount",
          "type": "uint256"
        },
        {
          "internalType": "bool",
          "name": "_shouldHarvest",
          "type": "bool"
        }
      ],
      "name": "deposit",
      "outputs": [],
      "stateMutability": "nonpayable",
      "type": "function"
    },
    {
      "inputs": [
        {
          "internalType": "uint256",
          "name": "_pid",
          "type": "uint256"
        },
        {
          "internalType": "uint256",
          "name": "_amount",
          "type": "uint256"
        }
      ],
      "name": "withdraw",
      "outputs": [],
      "stateMutability": "nonpayable",
      "type": "function"
    },
    {
      "inputs": [
        {
          "internalType": "uint256",
          "name": "_pid",
          "type": "uint256"
        }
      ],
      "name": "withdrawAll",
      "outputs": [],
      "stateMutability": "nonpayable",
      "type": "function"
    },
    {
      "inputs": [
        {
          "internalType": "uint256",
          "name": "_pid",
          "type": "uint256"
        }
      ],
      "name": "emergencyWithdraw",
      "outputs": [],
      "stateMutability": "nonpayable",
      "type": "function"
    },
    {
      "inputs": [
        {
          "internalType": "uint256[]",
          "name": "_pids",
          "type": "uint256[]"
        }
      ],
      "name": "harvestMultiplePools",
      "outputs": [],
      "stateMutability": "nonpayable",
      "type": "function"
    },
    {
      "inputs": [
        {
          "internalType": "uint256",
          "name": "_pid",
          "type": "uint256"
        },
        {
          "internalType": "address",
          "name": "_user",
          "type": "address"
        }
      ],
      "name": "pendingRewards",
      "outputs": [
        {
          "internalType": "uint256[]",
          "name": "rewards",
          "type": "uint256[]"
        }
      ],
      "stateMutability": "view",
      "type": "function"
    },
    {
      "inputs": [],
      "name": "getRewardTokens",
      "outputs": [
        {
          "internalType": "address[]",
          "name": "",
          "type": "address[]"
        }
      ],
      "stateMutability": "view",
      "type": "function"
    },
    {
      "inputs": [
        {
          "internalType": "uint256",
          "name": "_pid",
          "type": "uint256"
        }
      ],
      "name": "getPoolInfo",
      "outputs": [
        {
          "internalType": "uint256",
          "name": "totalStake",
          "type": "uint256"
        },
        {
          "internalType": "address",
          "name": "stakeToken",
          "type": "address"
        },
        {
          "internalType": "uint32",
          "name": "startBlock",
          "type": "uint32"
        },
        {
          "internalType": "uint32",
          "name": "endBlock",
          "type": "uint32"
        },
        {
          "internalType": "uint32",
          "name": "lastRewardBlock",
          "type": "uint32"
        },
        {
          "internalType": "uint256[]",
          "name": "rewardPerBlocks",
          "type": "uint256[]"
        },
        {
          "internalType": "uint256[]",
          "name": "accRewardPerShares",
          "type": "uint256[]"
        }
      ],
      "stateMutability": "view",
      "type": "function"
    },
    {
      "inputs": [
        {
          "internalType": "uint256",
          "name": "_pid",
          "type": "uint256"
        },
        {
          "internalType": "address",
          "name": "_account",
          "type": "address"
        }
      ],
      "name": "getUserInfo",
      "outputs": [
        {
          "internalType": "uint256",
          "name": "amount",
          "type": "uint256"
        },
        {
          "internalType": "uint256[]",
          "name": "unclaimedRewards",
          "type": "uint256[]"
        },
        {
          "internalType": "uint256[]",
          "name": "lastRewardPerShares",
          "type": "uint256[]"
        }
      ],
      "stateMutability": "view",
      "type": "function"
    },
    {
      "inputs": [
        {
          "internalType": "uint256",
          "name": "_pid",
          "type": "uint256"
        }
      ],
      "name": "harvest",
      "outputs": [],
      "stateMutability": "nonpayable",
      "type": "function"
    },
    {
      "inputs": [
        {
          "internalType": "uint256",
          "name": "_pid",
          "type": "uint256"
        }
      ],
      "name": "updatePoolRewards",
      "outputs": [],
      "stateMutability": "nonpayable",
      "type": "function"
    }
  ],
  "bytecode": "0x60a06040523480156200001157600080fd5b506040516200532f3803806200532f833981810160405281019062000037919062000919565b82600073ffffffffffffffffffffffffffffffffffffffff168173ffffffffffffffffffffffffffffffffffffffff161415620000dc576040517f08c379a00000000000000000000000000000000000000000000000000000000081526004018080602001828103825260078152602001807f61646d696e20300000000000000000000000000000000000000000000000000081525060200191505060405180910390fd5b806000806101000a81548173ffffffffffffffffffffffffffffffffffffffff021916908373ffffffffffffffffffffffffffffffffffffffff16021790555050600160028190555081600490805190602001906200013d9291906200079b565b508073ffffffffffffffffffffffffffffffffffffffff1660808173ffffffffffffffffffffffffffffffffffffffff1660601b8152505060005b82518110156200024057600073ffffffffffffffffffffffffffffffffffffffff16838281518110620001a757fe5b602002602001015173ffffffffffffffffffffffffffffffffffffffff1614620002325762000231827fffffffffffffffffffffffffffffffffffffffffffffffffffffffffffffffff858481518110620001fe57fe5b602002602001015173ffffffffffffffffffffffffffffffffffffffff166200024a60201b62002a73179092919060201c565b5b808060010191505062000178565b5050505062000a69565b60008114806200031c575060008373ffffffffffffffffffffffffffffffffffffffff1663dd62ed3e30856040518363ffffffff1660e01b8152600401808373ffffffffffffffffffffffffffffffffffffffff1681526020018273ffffffffffffffffffffffffffffffffffffffff1681526020019250505060206040518083038186803b158015620002dd57600080fd5b505afa158015620002f2573d6000803e3d6000fd5b505050506040513d60208110156200030957600080fd5b8101908080519060200190929190505050145b62000373576040517f08c379a0000000000000000000000000000000000000000000000000000000008152600401808060200182810382526036815260200180620052f96036913960400191505060405180910390fd5b620004188363095ea7b360e01b8484604051602401808373ffffffffffffffffffffffffffffffffffffffff16815260200182815260200192505050604051602081830303815290604052907bffffffffffffffffffffffffffffffffffffffffffffffffffffffff19166020820180517bffffffffffffffffffffffffffffffffffffffffffffffffffffffff83818316178352505050506200041d60201b60201c565b505050565b600062000486826040518060400160405280602081526020017f5361666545524332303a206c6f772d6c6576656c2063616c6c206661696c65648152508573ffffffffffffffffffffffffffffffffffffffff166200051760201b62002c38179092919060201c565b90506000815111156200051257808060200190516020811015620004a957600080fd5b810190808051906020019092919050505062000511576040517f08c379a000000000000000000000000000000000000000000000000000000000815260040180806020018281038252602a815260200180620052cf602a913960400191505060405180910390fd5b5b505050565b60606200052e84846000856200053760201b60201c565b90509392505050565b60606200054a856200074f60201b60201c565b620005bd576040517f08c379a000000000000000000000000000000000000000000000000000000000815260040180806020018281038252601d8152602001807f416464726573733a2063616c6c20746f206e6f6e2d636f6e747261637400000081525060200191505060405180910390fd5b6000808673ffffffffffffffffffffffffffffffffffffffff1685876040518082805190602001908083835b602083106200060e5780518252602082019150602081019050602083039250620005e9565b6001836020036101000a03801982511681845116808217855250505050505090500191505060006040518083038185875af1925050503d806000811462000672576040519150601f19603f3d011682016040523d82523d6000602084013e62000677565b606091505b509150915081156200068e57809250505062000747565b600081511115620006a25780518082602001fd5b836040517f08c379a00000000000000000000000000000000000000000000000000000000081526004018080602001828103825283818151815260200191508051906020019080838360005b838110156200070b578082015181840152602081019050620006ee565b50505050905090810190601f168015620007395780820380516001836020036101000a031916815260200191505b509250505060405180910390fd5b949350505050565b60008060007fc5d2460186f7233c927e7db2dcc703c0e500b653ca82273b7bfad8045d85a47060001b9050833f91508082141580156200079257506000801b8214155b92505050919050565b82805482825590600052602060002090810192821562000817579160200282015b82811115620008165782518260006101000a81548173ffffffffffffffffffffffffffffffffffffffff021916908373ffffffffffffffffffffffffffffffffffffffff16021790555091602001919060010190620007bc565b5b5090506200082691906200082a565b5090565b5b80821115620008455760008160009055506001016200082b565b5090565b6000620008606200085a84620009bc565b62000988565b905080838252602082019050828560208602820111156200088057600080fd5b60005b85811015620008b45781620008998882620008be565b84526020840193506020830192505060018101905062000883565b5050509392505050565b600081519050620008cf8162000a35565b92915050565b600082601f830112620008e757600080fd5b8151620008f984826020860162000849565b91505092915050565b600081519050620009138162000a4f565b92915050565b6000806000606084860312156200092f57600080fd5b60006200093f86828701620008be565b935050602084015167ffffffffffffffff8111156200095d57600080fd5b6200096b86828701620008d5565b92505060406200097e8682870162000902565b9150509250925092565b6000604051905081810181811067ffffffffffffffff82111715620009b257620009b162000a33565b5b8060405250919050565b600067ffffffffffffffff821115620009da57620009d962000a33565b5b602082029050602081019050919050565b6000620009f88262000a13565b9050919050565b600062000a0c82620009eb565b9050919050565b600073ffffffffffffffffffffffffffffffffffffffff82169050919050565bfe5b62000a4081620009eb565b811462000a4c57600080fd5b50565b62000a5a81620009ff565b811462000a6657600080fd5b50565b60805160601c61484362000a8c60003980610de652806132c852506148436000f3fe60806040526004361061014f5760003560e01c806377f50f97116100b6578063b43c62701161006f578063b43c627014610489578063c4f59f9b146104b2578063d12e4ceb146104dd578063d18df53c14610506578063ddc6326214610543578063f851a4401461056c57610156565b806377f50f97146103915780637acc8678146103a85780637bb7bed1146103d1578063958e2d311461040e578063adb82b3114610437578063affb9fc81461046057610156565b80633892601c116101085780633892601c1461029957806343a0d066146102c4578063441a3e70146102ed57806352fd9f2f146103165780635312ea8e1461033f57806375829def1461036857610156565b8063081e3eda1461015b5780631069f3b5146101865780631e1c6a07146101c557806326782247146102025780632f380b351461022d5780632fb40ce11461027057610156565b3661015657005b600080fd5b34801561016757600080fd5b50610170610597565b60405161017d91906144c7565b60405180910390f35b34801561019257600080fd5b506101ad60048036038101906101a89190613b33565b61059d565b6040516101bc9392919061455f565b60405180910390f35b3480156101d157600080fd5b506101ec60048036038101906101e79190613a1c565b610721565b6040516101f991906142ba565b60405180910390f35b34801561020e57600080fd5b50610217610741565b6040516102249190614237565b60405180910390f35b34801561023957600080fd5b50610254600480360381019061024f9190613b0a565b610767565b60405161026797969594939291906144e2565b60405180910390f35b34801561027c57600080fd5b5061029760048036038101906102929190613a45565b61092e565b005b3480156102a557600080fd5b506102ae610de4565b6040516102bb919061430c565b60405180910390f35b3480156102d057600080fd5b506102eb60048036038101906102e69190613bab565b610e08565b005b3480156102f957600080fd5b50610314600480360381019061030f9190613b6f565b610ff4565b005b34801561032257600080fd5b5061033d60048036038101906103389190613ac5565b611089565b005b34801561034b57600080fd5b5061036660048036038101906103619190613b0a565b6113d7565b005b34801561037457600080fd5b5061038f600480360381019061038a9190613a1c565b6115f6565b005b34801561039d57600080fd5b506103a66117eb565b005b3480156103b457600080fd5b506103cf60048036038101906103ca9190613a1c565b611a01565b005b3480156103dd57600080fd5b506103f860048036038101906103f39190613b0a565b611c80565b6040516104059190614237565b60405180910390f35b34801561041a57600080fd5b5061043560048036038101906104309190613b0a565b611cbf565b005b34801561044357600080fd5b5061045e60048036038101906104599190613b0a565b611da6565b005b34801561046c57600080fd5b5061048760048036038101906104829190613bfa565b611f58565b005b34801561049557600080fd5b506104b060048036038101906104ab9190613c66565b612208565b005b3480156104be57600080fd5b506104c7612516565b6040516104d49190614252565b60405180910390f35b3480156104e957600080fd5b5061050460048036038101906104ff9190613b6f565b6125a4565b005b34801561051257600080fd5b5061052d60048036038101906105289190613b33565b6127b9565b60405161053a9190614298565b60405180910390f35b34801561054f57600080fd5b5061056a60048036038101906105659190613b0a565b612a37565b005b34801561057857600080fd5b50610581612a4f565b60405161058e9190614237565b60405180910390f35b60055481565b600060608060006007600087815260200190815260200160002060008673ffffffffffffffffffffffffffffffffffffffff1673ffffffffffffffffffffffffffffffffffffffff16815260200190815260200160002090508060000154935060048054905067ffffffffffffffff8111801561061957600080fd5b506040519080825280602002602001820160405280156106485781602001602082028036833780820191505090505b50925060048054905067ffffffffffffffff8111801561066757600080fd5b506040519080825280602002602001820160405280156106965781602001602082028036833780820191505090505b50915060005b60048054905081101561071857816001016000828152602001908152602001600020600001548482815181106106ce57fe5b602002602001018181525050816001016000828152602001908152602001600020600101548382815181106106ff57fe5b602002602001018181525050808060010191505061069c565b50509250925092565b60036020528060005260406000206000915054906101000a900460ff1681565b600160009054906101000a900473ffffffffffffffffffffffffffffffffffffffff1681565b60008060008060006060806000600660008a8152602001908152602001600020905080600001548160010160009054906101000a900473ffffffffffffffffffffffffffffffffffffffff168260010160149054906101000a900463ffffffff168360010160189054906101000a900463ffffffff1684600101601c9054906101000a900463ffffffff16809850819950829a50839b50849c50505050505060048054905067ffffffffffffffff8111801561082257600080fd5b506040519080825280602002602001820160405280156108515781602001602082028036833780820191505090505b50925060048054905067ffffffffffffffff8111801561087057600080fd5b5060405190808252806020026020018201604052801561089f5781602001602082028036833780820191505090505b50915060005b60048054905081101561092157816002016000828152602001908152602001600020600001548482815181106108d757fe5b6020026020010181815250508160020160008281526020019081526020016000206001015483828151811061090857fe5b60200260200101818152505080806001019150506108a5565b5050919395979092949650565b60008054906101000a900473ffffffffffffffffffffffffffffffffffffffff1673ffffffffffffffffffffffffffffffffffffffff163373ffffffffffffffffffffffffffffffffffffffff16146109ef576040517f08c379a000000000000000000000000000000000000000000000000000000000815260040180806020018281038252600a8152602001807f6f6e6c792061646d696e0000000000000000000000000000000000000000000081525060200191505060405180910390fd5b600360008673ffffffffffffffffffffffffffffffffffffffff1673ffffffffffffffffffffffffffffffffffffffff16815260200190815260200160002060009054906101000a900460ff1615610a7c576040517f08c379a0000000000000000000000000000000000000000000000000000000008152600401610a7390614447565b60405180910390fd5b600073ffffffffffffffffffffffffffffffffffffffff168573ffffffffffffffffffffffffffffffffffffffff161415610aec576040517f08c379a0000000000000000000000000000000000000000000000000000000008152600401610ae390614327565b60405180910390fd5b8181905060048054905014610b36576040517f08c379a0000000000000000000000000000000000000000000000000000000008152600401610b2d906143a7565b60405180910390fd5b438463ffffffff16118015610b5657508363ffffffff168363ffffffff16115b610b95576040517f08c379a0000000000000000000000000000000000000000000000000000000008152600401610b8c906144a7565b60405180910390fd5b8460066000600554815260200190815260200160002060010160006101000a81548173ffffffffffffffffffffffffffffffffffffffff021916908373ffffffffffffffffffffffffffffffffffffffff1602179055508360066000600554815260200190815260200160002060010160146101000a81548163ffffffff021916908363ffffffff1602179055508260066000600554815260200190815260200160002060010160186101000a81548163ffffffff021916908363ffffffff16021790555083600660006005548152602001908152602001600020600101601c6101000a81548163ffffffff021916908363ffffffff16021790555060005b82829050811015610d14576040518060400160405280848484818110610cb657fe5b9050602002013581526020016000815250600660006005548152602001908152602001600020600201600083815260200190815260200160002060008201518160000155602082015181600101559050508080600101915050610c94565b506005600081548092919060010191905055506001600360008773ffffffffffffffffffffffffffffffffffffffff1673ffffffffffffffffffffffffffffffffffffffff16815260200190815260200160002060006101000a81548160ff0219169083151502179055508263ffffffff168463ffffffff168673ffffffffffffffffffffffffffffffffffffffff167feb19e76b03b99eff4d0329a19e44569c131f242c9590234f19b76f2c56a817a18585604051610dd5929190614274565b60405180910390a45050505050565b7f000000000000000000000000000000000000000000000000000000000000000081565b600280541415610e80576040517f08c379a000000000000000000000000000000000000000000000000000000000815260040180806020018281038252601f8152602001807f5265656e7472616e637947756172643a207265656e7472616e742063616c6c0081525060200191505060405180910390fd5b60028081905550610e9083611da6565b610e9b338483612c50565b600060066000858152602001908152602001600020905060006007600086815260200190815260200160002060003373ffffffffffffffffffffffffffffffffffffffff1673ffffffffffffffffffffffffffffffffffffffff1681526020019081526020016000209050610f573330868560010160009054906101000a900473ffffffffffffffffffffffffffffffffffffffff1673ffffffffffffffffffffffffffffffffffffffff16612f93909392919063ffffffff16565b610f6e84826000015461305490919063ffffffff16565b8160000181905550610f8d84836000015461305490919063ffffffff16565b826000018190555043853373ffffffffffffffffffffffffffffffffffffffff167f36af321ec8d3c75236829c5317affd40ddb308863a1236d2d277a4025cccee1e87604051610fdd91906144c7565b60405180910390a450506001600281905550505050565b60028054141561106c576040517f08c379a000000000000000000000000000000000000000000000000000000000815260040180806020018281038252601f8152602001807f5265656e7472616e637947756172643a207265656e7472616e742063616c6c0081525060200191505060405180910390fd5b6002808190555061107d82826130dc565b60016002819055505050565b6000600480548060200260200160405190810160405280929190818152602001828054801561110d57602002820191906000526020600020905b8160009054906101000a900473ffffffffffffffffffffffffffffffffffffffff1673ffffffffffffffffffffffffffffffffffffffff16815260200190600101908083116110c3575b505050505090506000815167ffffffffffffffff8111801561112e57600080fd5b5060405190808252806020026020018201604052801561115d5781602001602082028036833780820191505090505b5090506000339050600080600090505b868690508110156113665786868281811061118457fe5b90506020020135915061119682611da6565b6111a283836000612c50565b60005b85518110156113585760006007600085815260200190815260200160002060008673ffffffffffffffffffffffffffffffffffffffff1673ffffffffffffffffffffffffffffffffffffffff1681526020019081526020016000206001016000838152602001908152602001600020600001549050600081111561134a576112498187848151811061123357fe5b602002602001015161305490919063ffffffff16565b86838151811061125557fe5b60200260200101818152505060006007600086815260200190815260200160002060008773ffffffffffffffffffffffffffffffffffffffff1673ffffffffffffffffffffffffffffffffffffffff1681526020019081526020016000206001016000848152602001908152602001600020600001819055508682815181106112da57fe5b602002602001015173ffffffffffffffffffffffffffffffffffffffff16848673ffffffffffffffffffffffffffffffffffffffff167ff75f3d433c6628e04e01a0be1a2c6692a6011ce4b00389824cfa8b8a12f3c1c484436040516113419291906145a4565b60405180910390a45b5080806001019150506111a5565b50808060010191505061116d565b5060005b83518110156113ce57600084828151811061138157fe5b602002602001015111156113c1576113c085828151811061139e57fe5b6020026020010151848684815181106113b357fe5b6020026020010151613286565b5b808060010191505061136a565b50505050505050565b60028054141561144f576040517f08c379a000000000000000000000000000000000000000000000000000000000815260040180806020018281038252601f8152602001807f5265656e7472616e637947756172643a207265656e7472616e742063616c6c0081525060200191505060405180910390fd5b60028081905550600060066000838152602001908152602001600020905060006007600084815260200190815260200160002060003373ffffffffffffffffffffffffffffffffffffffff1673ffffffffffffffffffffffffffffffffffffffff16815260200190815260200160002090506000816000015490506000826000018190555060005b60048054905081101561151f576000836001016000838152602001908152602001600020905060008160010181905550600081600001819055505080806001019150506114d7565b5061153781846000015461335c90919063ffffffff16565b836000018190555060008111156115985761159733828560010160009054906101000a900473ffffffffffffffffffffffffffffffffffffffff1673ffffffffffffffffffffffffffffffffffffffff166133a69092919063ffffffff16565b5b43843373ffffffffffffffffffffffffffffffffffffffff167f2369db1bafee945aee5630782f4a170682e3f8188d8dc247a4c73eb8c9e692d2846040516115e091906144c7565b60405180910390a4505050600160028190555050565b60008054906101000a900473ffffffffffffffffffffffffffffffffffffffff1673ffffffffffffffffffffffffffffffffffffffff163373ffffffffffffffffffffffffffffffffffffffff16146116b7576040517f08c379a000000000000000000000000000000000000000000000000000000000815260040180806020018281038252600a8152602001807f6f6e6c792061646d696e0000000000000000000000000000000000000000000081525060200191505060405180910390fd5b600073ffffffffffffffffffffffffffffffffffffffff168173ffffffffffffffffffffffffffffffffffffffff16141561175a576040517f08c379a000000000000000000000000000000000000000000000000000000000815260040180806020018281038252600b8152602001807f6e65772061646d696e203000000000000000000000000000000000000000000081525060200191505060405180910390fd5b7f3b81caf78fa51ecbc8acb482fd7012a277b428d9b80f9d156e8a54107496cc4081604051808273ffffffffffffffffffffffffffffffffffffffff16815260200191505060405180910390a180600160006101000a81548173ffffffffffffffffffffffffffffffffffffffff021916908373ffffffffffffffffffffffffffffffffffffffff16021790555050565b3373ffffffffffffffffffffffffffffffffffffffff16600160009054906101000a900473ffffffffffffffffffffffffffffffffffffffff1673ffffffffffffffffffffffffffffffffffffffff16146118ae576040517f08c379a000000000000000000000000000000000000000000000000000000000815260040180806020018281038252600b8152602001807f6e6f742070656e64696e6700000000000000000000000000000000000000000081525060200191505060405180910390fd5b7f65da1cfc2c2e81576ad96afb24a581f8e109b7a403b35cbd3243a1c99efdb9ed600160009054906101000a900473ffffffffffffffffffffffffffffffffffffffff1660008054906101000a900473ffffffffffffffffffffffffffffffffffffffff16604051808373ffffffffffffffffffffffffffffffffffffffff1681526020018273ffffffffffffffffffffffffffffffffffffffff1681526020019250505060405180910390a1600160009054906101000a900473ffffffffffffffffffffffffffffffffffffffff166000806101000a81548173ffffffffffffffffffffffffffffffffffffffff021916908373ffffffffffffffffffffffffffffffffffffffff1602179055506000600160006101000a81548173ffffffffffffffffffffffffffffffffffffffff021916908373ffffffffffffffffffffffffffffffffffffffff160217905550565b60008054906101000a900473ffffffffffffffffffffffffffffffffffffffff1673ffffffffffffffffffffffffffffffffffffffff163373ffffffffffffffffffffffffffffffffffffffff1614611ac2576040517f08c379a000000000000000000000000000000000000000000000000000000000815260040180806020018281038252600a8152602001807f6f6e6c792061646d696e0000000000000000000000000000000000000000000081525060200191505060405180910390fd5b600073ffffffffffffffffffffffffffffffffffffffff168173ffffffffffffffffffffffffffffffffffffffff161415611b65576040517f08c379a00000000000000000000000000000000000000000000000000000000081526004018080602001828103825260078152602001807f61646d696e20300000000000000000000000000000000000000000000000000081525060200191505060405180910390fd5b7f3b81caf78fa51ecbc8acb482fd7012a277b428d9b80f9d156e8a54107496cc4081604051808273ffffffffffffffffffffffffffffffffffffffff16815260200191505060405180910390a17f65da1cfc2c2e81576ad96afb24a581f8e109b7a403b35cbd3243a1c99efdb9ed8160008054906101000a900473ffffffffffffffffffffffffffffffffffffffff16604051808373ffffffffffffffffffffffffffffffffffffffff1681526020018273ffffffffffffffffffffffffffffffffffffffff1681526020019250505060405180910390a1806000806101000a81548173ffffffffffffffffffffffffffffffffffffffff021916908373ffffffffffffffffffffffffffffffffffffffff16021790555050565b60048181548110611c9057600080fd5b906000526020600020016000915054906101000a900473ffffffffffffffffffffffffffffffffffffffff1681565b600280541415611d37576040517f08c379a000000000000000000000000000000000000000000000000000000000815260040180806020018281038252601f8152602001807f5265656e7472616e637947756172643a207265656e7472616e742063616c6c0081525060200191505060405180910390fd5b60028081905550611d9b816007600084815260200190815260200160002060003373ffffffffffffffffffffffffffffffffffffffff1673ffffffffffffffffffffffffffffffffffffffff168152602001908152602001600020600001546130dc565b600160028190555050565b6005548110611dea576040517f08c379a0000000000000000000000000000000000000000000000000000000008152600401611de190614387565b60405180910390fd5b60006006600083815260200190815260200160002090506000611e0c83613448565b905081600101601c9054906101000a900463ffffffff1663ffffffff168163ffffffff1611611e3c575050611f55565b6000826000015490506000811415611e79578183600101601c6101000a81548163ffffffff021916908363ffffffff160217905550505050611f55565b600083600101601c9054906101000a900463ffffffff16830363ffffffff16905060005b600480549050811015611f2c57600085600201600083815260200190815260200160002090506000611edc82600001548561349290919063ffffffff16565b9050611f1585611efa64e8d4a510008461349290919063ffffffff16565b81611f0157fe5b04836001015461305490919063ffffffff16565b826001018190555050508080600101915050611e9d565b508284600101601c6101000a81548163ffffffff021916908363ffffffff160217905550505050505b50565b60008054906101000a900473ffffffffffffffffffffffffffffffffffffffff1673ffffffffffffffffffffffffffffffffffffffff163373ffffffffffffffffffffffffffffffffffffffff1614612019576040517f08c379a000000000000000000000000000000000000000000000000000000000815260040180806020018281038252600a8152602001807f6f6e6c792061646d696e0000000000000000000000000000000000000000000081525060200191505060405180910390fd5b61202284611da6565b6000600660008681526020019081526020016000209050438160010160189054906101000a900463ffffffff1663ffffffff1611612095576040517f08c379a000000000000000000000000000000000000000000000000000000000815260040161208c90614487565b60405180910390fd5b82829050600480549050146120df576040517f08c379a00000000000000000000000000000000000000000000000000000000081526004016120d690614367565b60405180910390fd5b438463ffffffff1611801561211357508060010160149054906101000a900463ffffffff1663ffffffff168463ffffffff16115b612152576040517f08c379a000000000000000000000000000000000000000000000000000000000815260040161214990614407565b60405180910390fd5b838160010160186101000a81548163ffffffff021916908363ffffffff16021790555060005b838390508110156121bf5783838281811061218f57fe5b90506020020135826002016000838152602001908152602001600020600001819055508080600101915050612178565b508363ffffffff16857fba2d8506275d684e80223910f1065a195ea279f37e27eb97ac24f4107eba6cf985856040516121f9929190614274565b60405180910390a35050505050565b60008054906101000a900473ffffffffffffffffffffffffffffffffffffffff1673ffffffffffffffffffffffffffffffffffffffff163373ffffffffffffffffffffffffffffffffffffffff16146122c9576040517f08c379a000000000000000000000000000000000000000000000000000000000815260040180806020018281038252600a8152602001807f6f6e6c792061646d696e0000000000000000000000000000000000000000000081525060200191505060405180910390fd5b6122d285611da6565b6000600660008781526020019081526020016000209050438160010160149054906101000a900463ffffffff1663ffffffff16118061232a5750438160010160189054906101000a900463ffffffff1663ffffffff16105b612369576040517f08c379a000000000000000000000000000000000000000000000000000000000815260040161236090614467565b60405180910390fd5b82829050600480549050146123b3576040517f08c379a00000000000000000000000000000000000000000000000000000000081526004016123aa906143c7565b60405180910390fd5b438563ffffffff161180156123d357508463ffffffff168463ffffffff16115b612412576040517f08c379a000000000000000000000000000000000000000000000000000000000815260040161240990614347565b60405180910390fd5b848160010160146101000a81548163ffffffff021916908363ffffffff160217905550838160010160186101000a81548163ffffffff021916908363ffffffff1602179055508481600101601c6101000a81548163ffffffff021916908363ffffffff16021790555060005b838390508110156124c55783838281811061249557fe5b9050602002013582600201600083815260200190815260200160002060000181905550808060010191505061247e565b508363ffffffff168563ffffffff16877f4f863dc93468acf71ff8f5770599fbead4d0ff8ea6bd0c3251576f68fdad09048686604051612506929190614274565b60405180910390a4505050505050565b6060600480548060200260200160405190810160405280929190818152602001828054801561259a57602002820191906000526020600020905b8160009054906101000a900473ffffffffffffffffffffffffffffffffffffffff1673ffffffffffffffffffffffffffffffffffffffff1681526020019060010190808311612550575b5050505050905090565b60008054906101000a900473ffffffffffffffffffffffffffffffffffffffff1673ffffffffffffffffffffffffffffffffffffffff163373ffffffffffffffffffffffffffffffffffffffff1614612665576040517f08c379a000000000000000000000000000000000000000000000000000000000815260040180806020018281038252600a8152602001807f6f6e6c792061646d696e0000000000000000000000000000000000000000000081525060200191505060405180910390fd5b60006004838154811061267457fe5b9060005260206000200160009054906101000a900473ffffffffffffffffffffffffffffffffffffffff169050600073ffffffffffffffffffffffffffffffffffffffff168173ffffffffffffffffffffffffffffffffffffffff1614156127885760003373ffffffffffffffffffffffffffffffffffffffff16836040516126fc90614222565b60006040518083038185875af1925050503d8060008114612739576040519150601f19603f3d011682016040523d82523d6000602084013e61273e565b606091505b5050905080612782576040517f08c379a000000000000000000000000000000000000000000000000000000000815260040161277990614427565b60405180910390fd5b506127b4565b6127b333838373ffffffffffffffffffffffffffffffffffffffff166133a69092919063ffffffff16565b5b505050565b6060600060048054905090508067ffffffffffffffff811180156127dc57600080fd5b5060405190808252806020026020018201604052801561280b5781602001602082028036833780820191505090505b509150600060066000868152602001908152602001600020905060006007600087815260200190815260200160002060008673ffffffffffffffffffffffffffffffffffffffff1673ffffffffffffffffffffffffffffffffffffffff1681526020019081526020016000209050600082600001549050600083600101601c9054906101000a900463ffffffff1663ffffffff16905060006128ac89613448565b905060005b86811015612a2a576000866002016000838152602001908152602001600020600101549050838363ffffffff161180156128ec575060008514155b1561295f57600061292688600201600085815260200190815260200160002060000154868663ffffffff160361349290919063ffffffff16565b905061295b8661294464e8d4a510008461349290919063ffffffff16565b8161294b57fe5b048361305490919063ffffffff16565b9150505b64e8d4a510006129a6612993886001016000868152602001908152602001600020600101548461335c90919063ffffffff16565b886000015461349290919063ffffffff16565b816129ad57fe5b048983815181106129ba57fe5b602002602001018181525050612a04866001016000848152602001908152602001600020600001548a84815181106129ee57fe5b602002602001015161305490919063ffffffff16565b898381518110612a1057fe5b6020026020010181815250505080806001019150506128b1565b5050505050505092915050565b612a4081611da6565b612a4c33826001612c50565b50565b60008054906101000a900473ffffffffffffffffffffffffffffffffffffffff1681565b6000811480612b41575060008373ffffffffffffffffffffffffffffffffffffffff1663dd62ed3e30856040518363ffffffff1660e01b8152600401808373ffffffffffffffffffffffffffffffffffffffff1681526020018273ffffffffffffffffffffffffffffffffffffffff1681526020019250505060206040518083038186803b158015612b0457600080fd5b505afa158015612b18573d6000803e3d6000fd5b505050506040513d6020811015612b2e57600080fd5b8101908080519060200190929190505050145b612b96576040517f08c379a00000000000000000000000000000000000000000000000000000000081526004018080602001828103825260368152602001806147d86036913960400191505060405180910390fd5b612c338363095ea7b360e01b8484604051602401808373ffffffffffffffffffffffffffffffffffffffff16815260200182815260200192505050604051602081830303815290604052907bffffffffffffffffffffffffffffffffffffffffffffffffffffffff19166020820180517bffffffffffffffffffffffffffffffffffffffffffffffffffffffff8381831617835250505050613518565b505050565b6060612c478484600085613607565b90509392505050565b60006007600084815260200190815260200160002060008573ffffffffffffffffffffffffffffffffffffffff1673ffffffffffffffffffffffffffffffffffffffff168152602001908152602001600020600001549050600060048054905090506000821415612d715760005b81811015612d6957600660008681526020019081526020016000206002016000828152602001908152602001600020600101546007600087815260200190815260200160002060008873ffffffffffffffffffffffffffffffffffffffff1673ffffffffffffffffffffffffffffffffffffffff1681526020019081526020016000206001016000838152602001908152602001600020600101819055508080600101915050612cbe565b505050612f8e565b60005b81811015612f8a57600060066000878152602001908152602001600020600201600083815260200190815260200160002060010154905060006007600088815260200190815260200160002060008973ffffffffffffffffffffffffffffffffffffffff1673ffffffffffffffffffffffffffffffffffffffff16815260200190815260200160002060010160008481526020019081526020016000209050600064e8d4a51000612e44612e3584600101548661335c90919063ffffffff16565b8861349290919063ffffffff16565b81612e4b57fe5b049050612e6582600001548261305490919063ffffffff16565b905086612e725780612e75565b60005b8260000181905550828260010181905550868015612e935750600081115b15612f7a57612eda60048581548110612ea857fe5b9060005260206000200160009054906101000a900473ffffffffffffffffffffffffffffffffffffffff168a83613286565b60048481548110612ee757fe5b9060005260206000200160009054906101000a900473ffffffffffffffffffffffffffffffffffffffff1673ffffffffffffffffffffffffffffffffffffffff16888a73ffffffffffffffffffffffffffffffffffffffff167ff75f3d433c6628e04e01a0be1a2c6692a6011ce4b00389824cfa8b8a12f3c1c48443604051612f719291906145a4565b60405180910390a45b5050508080600101915050612d74565b5050505b505050565b61304e846323b872dd60e01b858585604051602401808473ffffffffffffffffffffffffffffffffffffffff1681526020018373ffffffffffffffffffffffffffffffffffffffff1681526020018281526020019350505050604051602081830303815290604052907bffffffffffffffffffffffffffffffffffffffffffffffffffffffff19166020820180517bffffffffffffffffffffffffffffffffffffffffffffffffffffffff8381831617835250505050613518565b50505050565b6000808284019050838110156130d2576040517f08c379a000000000000000000000000000000000000000000000000000000000815260040180806020018281038252601b8152602001807f536166654d6174683a206164646974696f6e206f766572666c6f77000000000081525060200191505060405180910390fd5b8091505092915050565b600060066000848152602001908152602001600020905060006007600085815260200190815260200160002060003373ffffffffffffffffffffffffffffffffffffffff1673ffffffffffffffffffffffffffffffffffffffff1681526020019081526020016000209050828160000154101561318e576040517f08c379a0000000000000000000000000000000000000000000000000000000008152600401613185906143e7565b60405180910390fd5b61319784611da6565b6131a333856001612c50565b6131ba83826000015461335c90919063ffffffff16565b81600001819055506131d983836000015461335c90919063ffffffff16565b826000018190555061323033848460010160009054906101000a900473ffffffffffffffffffffffffffffffffffffffff1673ffffffffffffffffffffffffffffffffffffffff166133a69092919063ffffffff16565b43843373ffffffffffffffffffffffffffffffffffffffff167f02f25270a4d87bea75db541cdfe559334a275b4a233520ed6c0a2429667cca948660405161327891906144c7565b60405180910390a450505050565b60008073ffffffffffffffffffffffffffffffffffffffff168473ffffffffffffffffffffffffffffffffffffffff16146132c25760006132c4565b815b90507f000000000000000000000000000000000000000000000000000000000000000073ffffffffffffffffffffffffffffffffffffffff16637750c9f0828686866040518563ffffffff1660e01b8152600401613324939291906142d5565b6000604051808303818588803b15801561333d57600080fd5b505af1158015613351573d6000803e3d6000fd5b505050505050505050565b600061339e83836040518060400160405280601e81526020017f536166654d6174683a207375627472616374696f6e206f766572666c6f77000081525061380c565b905092915050565b6134438363a9059cbb60e01b8484604051602401808373ffffffffffffffffffffffffffffffffffffffff16815260200182815260200192505050604051602081830303815290604052907bffffffffffffffffffffffffffffffffffffffffffffffffffffffff19166020820180517bffffffffffffffffffffffffffffffffffffffffffffffffffffffff8381831617835250505050613518565b505050565b60006006600083815260200190815260200160002060010160189054906101000a900463ffffffff169050438163ffffffff16111561348d5761348a436138cc565b90505b919050565b6000808314156134a55760009050613512565b60008284029050828482816134b657fe5b041461350d576040517f08c379a00000000000000000000000000000000000000000000000000000000081526004018080602001828103825260218152602001806147676021913960400191505060405180910390fd5b809150505b92915050565b600061357a826040518060400160405280602081526020017f5361666545524332303a206c6f772d6c6576656c2063616c6c206661696c65648152508573ffffffffffffffffffffffffffffffffffffffff16612c389092919063ffffffff16565b90506000815111156136025780806020019051602081101561359b57600080fd5b8101908080519060200190929190505050613601576040517f08c379a000000000000000000000000000000000000000000000000000000000815260040180806020018281038252602a8152602001806147ae602a913960400191505060405180910390fd5b5b505050565b606061361285613933565b613684576040517f08c379a000000000000000000000000000000000000000000000000000000000815260040180806020018281038252601d8152602001807f416464726573733a2063616c6c20746f206e6f6e2d636f6e747261637400000081525060200191505060405180910390fd5b6000808673ffffffffffffffffffffffffffffffffffffffff1685876040518082805190602001908083835b602083106136d357805182526020820191506020810190506020830392506136b0565b6001836020036101000a03801982511681845116808217855250505050505090500191505060006040518083038185875af1925050503d8060008114613735576040519150601f19603f3d011682016040523d82523d6000602084013e61373a565b606091505b5091509150811561374f578092505050613804565b6000815111156137625780518082602001fd5b836040517f08c379a00000000000000000000000000000000000000000000000000000000081526004018080602001828103825283818151815260200191508051906020019080838360005b838110156137c95780820151818401526020810190506137ae565b50505050905090810190601f1680156137f65780820380516001836020036101000a031916815260200191505b509250505060405180910390fd5b949350505050565b60008383111582906138b9576040517f08c379a00000000000000000000000000000000000000000000000000000000081526004018080602001828103825283818151815260200191508051906020019080838360005b8381101561387e578082015181840152602081019050613863565b50505050905090810190601f1680156138ab5780820380516001836020036101000a031916815260200191505b509250505060405180910390fd5b5060008385039050809150509392505050565b6000640100000000821061392b576040517f08c379a00000000000000000000000000000000000000000000000000000000081526004018080602001828103825260268152602001806147886026913960400191505060405180910390fd5b819050919050565b60008060007fc5d2460186f7233c927e7db2dcc703c0e500b653ca82273b7bfad8045d85a47060001b9050833f915080821415801561397557506000801b8214155b92505050919050565b60008135905061398d8161470a565b92915050565b60008083601f8401126139a557600080fd5b8235905067ffffffffffffffff8111156139be57600080fd5b6020830191508360208202830111156139d657600080fd5b9250929050565b6000813590506139ec81614721565b92915050565b600081359050613a0181614738565b92915050565b600081359050613a168161474f565b92915050565b600060208284031215613a2e57600080fd5b6000613a3c8482850161397e565b91505092915050565b600080600080600060808688031215613a5d57600080fd5b6000613a6b8882890161397e565b9550506020613a7c88828901613a07565b9450506040613a8d88828901613a07565b935050606086013567ffffffffffffffff811115613aaa57600080fd5b613ab688828901613993565b92509250509295509295909350565b60008060208385031215613ad857600080fd5b600083013567ffffffffffffffff811115613af257600080fd5b613afe85828601613993565b92509250509250929050565b600060208284031215613b1c57600080fd5b6000613b2a848285016139f2565b91505092915050565b60008060408385031215613b4657600080fd5b6000613b54858286016139f2565b9250506020613b658582860161397e565b9150509250929050565b60008060408385031215613b8257600080fd5b6000613b90858286016139f2565b9250506020613ba1858286016139f2565b9150509250929050565b600080600060608486031215613bc057600080fd5b6000613bce868287016139f2565b9350506020613bdf868287016139f2565b9250506040613bf0868287016139dd565b9150509250925092565b60008060008060608587031215613c1057600080fd5b6000613c1e878288016139f2565b9450506020613c2f87828801613a07565b935050604085013567ffffffffffffffff811115613c4c57600080fd5b613c5887828801613993565b925092505092959194509250565b600080600080600060808688031215613c7e57600080fd5b6000613c8c888289016139f2565b9550506020613c9d88828901613a07565b9450506040613cae88828901613a07565b935050606086013567ffffffffffffffff811115613ccb57600080fd5b613cd788828901613993565b92509250509295509295909350565b6000613cf28383613d16565b60208301905092915050565b6000613d0a83836141f5565b60208301905092915050565b613d1f8161465b565b82525050565b613d2e8161465b565b82525050565b6000613d3f826145ed565b613d49818561461d565b9350613d54836145cd565b8060005b83811015613d85578151613d6c8882613ce6565b9750613d7783614603565b925050600181019050613d58565b5085935050505092915050565b6000613d9e838561462e565b93507f07ffffffffffffffffffffffffffffffffffffffffffffffffffffffffffffff831115613dcd57600080fd5b602083029250613dde8385846146fb565b82840190509392505050565b6000613df5826145f8565b613dff818561462e565b9350613e0a836145dd565b8060005b83811015613e3b578151613e228882613cfe565b9750613e2d83614610565b925050600181019050613e0e565b5085935050505092915050565b613e518161466d565b82525050565b613e60816146b3565b82525050565b613e6f816146d7565b82525050565b6000613e8260188361464a565b91507f6164643a20696e76616c6964207374616b6520746f6b656e00000000000000006000830152602082019050919050565b6000613ec260158361464a565b91507f72656e65773a20696e76616c696420626c6f636b7300000000000000000000006000830152602082019050919050565b6000613f0260168361464a565b91507f7570646174653a20696e76616c6964206c656e677468000000000000000000006000830152602082019050919050565b6000613f42600f8361464a565b91507f696e76616c696420706f6f6c20696400000000000000000000000000000000006000830152602082019050919050565b6000613f8260138361464a565b91507f6164643a20696e76616c6964206c656e677468000000000000000000000000006000830152602082019050919050565b6000613fc260158361464a565b91507f72656e65773a20696e76616c6964206c656e67746800000000000000000000006000830152602082019050919050565b6000614002601d8361464a565b91507f77697468647261773a20696e73756666696369656e7420616d6f756e740000006000830152602082019050919050565b600061404260198361464a565b91507f7570646174653a20696e76616c696420656e6420626c6f636b000000000000006000830152602082019050919050565b6000614082601c8361464a565b91507f7472616e736665722072657761726420746f6b656e206661696c6564000000006000830152602082019050919050565b60006140c260148361464a565b91507f6164643a206475706c69636174656420706f6f6c0000000000000000000000006000830152602082019050919050565b600061410260228361464a565b91507f72656e65773a20696e76616c696420706f6f6c20737461746520746f2072656e60008301527f65770000000000000000000000000000000000000000000000000000000000006020830152604082019050919050565b6000614168601a8361464a565b91507f7570646174653a20706f6f6c20616c726561647920656e6465640000000000006000830152602082019050919050565b60006141a860008361463f565b9150600082019050919050565b60006141c260138361464a565b91507f6164643a20696e76616c696420626c6f636b73000000000000000000000000006000830152602082019050919050565b6141fe81614699565b82525050565b61420d81614699565b82525050565b61421c816146a3565b82525050565b600061422d8261419b565b9150819050919050565b600060208201905061424c6000830184613d25565b92915050565b6000602082019050818103600083015261426c8184613d34565b905092915050565b6000602082019050818103600083015261428f818486613d92565b90509392505050565b600060208201905081810360008301526142b28184613dea565b905092915050565b60006020820190506142cf6000830184613e48565b92915050565b60006060820190506142ea6000830186613e57565b6142f76020830185613d25565b6143046040830184614204565b949350505050565b60006020820190506143216000830184613e66565b92915050565b6000602082019050818103600083015261434081613e75565b9050919050565b6000602082019050818103600083015261436081613eb5565b9050919050565b6000602082019050818103600083015261438081613ef5565b9050919050565b600060208201905081810360008301526143a081613f35565b9050919050565b600060208201905081810360008301526143c081613f75565b9050919050565b600060208201905081810360008301526143e081613fb5565b9050919050565b6000602082019050818103600083015261440081613ff5565b9050919050565b6000602082019050818103600083015261442081614035565b9050919050565b6000602082019050818103600083015261444081614075565b9050919050565b60006020820190508181036000830152614460816140b5565b9050919050565b60006020820190508181036000830152614480816140f5565b9050919050565b600060208201905081810360008301526144a08161415b565b9050919050565b600060208201905081810360008301526144c0816141b5565b9050919050565b60006020820190506144dc6000830184614204565b92915050565b600060e0820190506144f7600083018a614204565b6145046020830189613d25565b6145116040830188614213565b61451e6060830187614213565b61452b6080830186614213565b81810360a083015261453d8185613dea565b905081810360c08301526145518184613dea565b905098975050505050505050565b60006060820190506145746000830186614204565b81810360208301526145868185613dea565b9050818103604083015261459a8184613dea565b9050949350505050565b60006040820190506145b96000830185614204565b6145c66020830184614204565b9392505050565b6000819050602082019050919050565b6000819050602082019050919050565b600081519050919050565b600081519050919050565b6000602082019050919050565b6000602082019050919050565b600082825260208201905092915050565b600082825260208201905092915050565b600081905092915050565b600082825260208201905092915050565b600061466682614679565b9050919050565b60008115159050919050565b600073ffffffffffffffffffffffffffffffffffffffff82169050919050565b6000819050919050565b600063ffffffff82169050919050565b60006146be826146c5565b9050919050565b60006146d082614679565b9050919050565b60006146e2826146e9565b9050919050565b60006146f482614679565b9050919050565b82818337600083830152505050565b6147138161465b565b811461471e57600080fd5b50565b61472a8161466d565b811461473557600080fd5b50565b61474181614699565b811461474c57600080fd5b50565b614758816146a3565b811461476357600080fd5b5056fe536166654d6174683a206d756c7469706c69636174696f6e206f766572666c6f7753616665436173743a2076616c756520646f65736e27742066697420696e20333220626974735361666545524332303a204552433230206f7065726174696f6e20646964206e6f7420737563636565645361666545524332303a20617070726f76652066726f6d206e6f6e2d7a65726f20746f206e6f6e2d7a65726f20616c6c6f77616e6365a2646970667358221220d416ba9bcf1672ed13d526c97e66cb7ba06351964b96067d68822dbdb85daaff64736f6c634300070600335361666545524332303a204552433230206f7065726174696f6e20646964206e6f7420737563636565645361666545524332303a20617070726f76652066726f6d206e6f6e2d7a65726f20746f206e6f6e2d7a65726f20616c6c6f77616e6365",
  "immutableReferences": {
    "12652": [
      {
        "length": 32,
        "start": 3558
      },
      {
        "length": 32,
        "start": 13000
      }
    ]
  },
  "source": "// SPDX-License-Identifier: agpl-3.0\r\npragma solidity 0.7.6;\r\npragma abicoder v2;\r\n\r\nimport {ReentrancyGuard} from '@openzeppelin/contracts/utils/ReentrancyGuard.sol';\r\nimport {SafeMath} from '@openzeppelin/contracts/math/SafeMath.sol';\r\nimport {SafeERC20} from '@openzeppelin/contracts/token/ERC20/SafeERC20.sol';\r\nimport {SafeCast} from '@openzeppelin/contracts/utils/SafeCast.sol';\r\nimport {IERC20Ext} from './kybernetwork/utils-sc/contracts/IERC20Ext.sol';\r\nimport {PermissionAdmin} from './kybernetwork/utils-sc/contracts/PermissionAdmin.sol';\r\nimport {IKyberFairLaunch} from '../interfaces/liquidityMining/IKyberFairLaunch.sol';\r\nimport {IKyberRewardLocker} from '../interfaces/liquidityMining/IKyberRewardLocker.sol';\r\n\r\n/// FairLaunch contract for Kyber DMM Liquidity Mining program\r\n/// Allow stakers to stake LP tokens and receive reward tokens\r\n/// Allow extend or renew a pool to continue/restart the LM program\r\n/// When harvesting, rewards will be transferred to a RewardLocker\r\n/// Support multiple reward tokens, reward tokens must be distinct and immutable\r\ncontract KyberFairLaunch is IKyberFairLaunch, PermissionAdmin, ReentrancyGuard {\r\n  using SafeMath for uint256;\r\n  using SafeCast for uint256;\r\n  using SafeERC20 for IERC20Ext;\r\n\r\n  uint256 internal constant PRECISION = 1e12;\r\n\r\n  struct UserRewardData {\r\n    uint256 unclaimedReward;\r\n    uint256 lastRewardPerShare;\r\n  }\r\n  // Info of each user.\r\n  struct UserInfo {\r\n    uint256 amount; // How many Staking tokens the user has provided.\r\n    mapping (uint256 => UserRewardData) userRewardData;\r\n    //\r\n    // Basically, any point in time, the amount of reward token\r\n    // entitled to a user but is pending to be distributed is:\r\n    //\r\n    //   pending reward = user.unclaimAmount + (user.amount * (pool.accRewardPerShare - user.lastRewardPerShare)\r\n    //\r\n    // Whenever a user deposits or withdraws Staking tokens to a pool. Here's what happens:\r\n    //   1. The pool's `accRewardPerShare` (and `lastRewardBlock`) gets updated.\r\n    //   2. User receives the pending reward sent to his/her address.\r\n    //   3. User's `lastRewardPerShare` gets updated.\r\n    //   4. User's `amount` gets updated.\r\n  }\r\n\r\n  struct PoolRewardData {\r\n    uint256 rewardPerBlock;\r\n    uint256 accRewardPerShare;\r\n  }\r\n  // Info of each pool\r\n  // poolRewardData: reward data for each reward token\r\n  //      rewardPerBlock: amount of reward token per block\r\n  //      accRewardPerShare: accumulated reward per share of token\r\n  // totalStake: total amount of stakeToken has been staked\r\n  // stakeToken: token to stake, should be an ERC20 token\r\n  // startBlock: the block that the reward starts\r\n  // endBlock: the block that the reward ends\r\n  // lastRewardBlock: last block number that rewards distribution occurs\r\n  struct PoolInfo {\r\n    uint256 totalStake;\r\n    address stakeToken;\r\n    uint32 startBlock;\r\n    uint32 endBlock;\r\n    uint32 lastRewardBlock;\r\n    mapping (uint256 => PoolRewardData) poolRewardData;\r\n  }\r\n\r\n  // check if a pool exists for a stakeToken\r\n  mapping(address => bool) public poolExists;\r\n  // contract for locking reward\r\n  IKyberRewardLocker public immutable rewardLocker;\r\n  // list reward tokens, use 0x0 for native token, shouldn't be too many reward tokens\r\n  // don't validate values or length by trusting the deployer\r\n  address[] public rewardTokens;\r\n\r\n  // Info of each pool.\r\n  uint256 public override poolLength;\r\n  mapping(uint256 => PoolInfo) internal poolInfo;\r\n  // Info of each user that stakes Staking tokens.\r\n  mapping(uint256 => mapping(address => UserInfo)) internal userInfo;\r\n\r\n  event AddNewPool(\r\n    address indexed stakeToken,\r\n    uint32 indexed startBlock,\r\n    uint32 indexed endBlock,\r\n    uint256[] rewardPerBlocks\r\n  );\r\n  event RenewPool(\r\n    uint256 indexed pid,\r\n    uint32 indexed startBlock,\r\n    uint32 indexed endBlock,\r\n    uint256[] rewardPerBlocks\r\n  );\r\n  event UpdatePool(\r\n    uint256 indexed pid,\r\n    uint32 indexed endBlock,\r\n    uint256[] rewardPerBlocks\r\n  );\r\n  event Deposit(\r\n    address indexed user,\r\n    uint256 indexed pid,\r\n    uint256 indexed blockNumber,\r\n    uint256 amount\r\n  );\r\n  event Withdraw(\r\n    address indexed user,\r\n    uint256 indexed pid,\r\n    uint256 indexed blockNumber,\r\n    uint256 amount\r\n  );\r\n  event Harvest(\r\n    address indexed user,\r\n    uint256 indexed pid,\r\n    address indexed rewardToken,\r\n    uint256 lockedAmount,\r\n    uint256 blockNumber\r\n  );\r\n  event EmergencyWithdraw(\r\n    address indexed user,\r\n    uint256 indexed pid,\r\n    uint256 indexed blockNumber,\r\n    uint256 amount\r\n  );\r\n\r\n  constructor(\r\n    address _admin,\r\n    address[] memory _rewardTokens,\r\n    IKyberRewardLocker _rewardLocker\r\n  ) PermissionAdmin(_admin) {\r\n    rewardTokens = _rewardTokens;\r\n    rewardLocker = _rewardLocker;\r\n\r\n    // approve allowance to reward locker\r\n    for(uint256 i = 0; i < _rewardTokens.length; i++) {\r\n      if (_rewardTokens[i] != address(0)) {\r\n        IERC20Ext(_rewardTokens[i]).safeApprove(address(_rewardLocker), type(uint256).max);\r\n      }\r\n    }\r\n  }\r\n\r\n  receive() external payable {}\r\n\r\n  /**\r\n   * @dev Allow admin to withdraw only reward tokens\r\n   */\r\n  function adminWithdraw(uint256 rewardTokenIndex, uint256 amount) external onlyAdmin {\r\n    IERC20Ext rewardToken = IERC20Ext(rewardTokens[rewardTokenIndex]);\r\n    if (rewardToken == IERC20Ext(0)) {\r\n      (bool success, ) = msg.sender.call{ value: amount }('');\r\n      require(success, 'transfer reward token failed');\r\n    } else {\r\n      rewardToken.safeTransfer(msg.sender, amount);\r\n    }\r\n  }\r\n\r\n  /**\r\n   * @dev Add a new lp to the pool. Can only be called by the admin.\r\n   * @param _stakeToken: token to be staked to the pool\r\n   * @param _startBlock: block where the reward starts\r\n   * @param _endBlock: block where the reward ends\r\n   * @param _rewardPerBlocks: amount of reward token per block for the pool for each reward token\r\n   */\r\n  function addPool(\r\n    address _stakeToken,\r\n    uint32 _startBlock,\r\n    uint32 _endBlock,\r\n    uint256[] calldata _rewardPerBlocks\r\n  ) external override onlyAdmin {\r\n    require(!poolExists[_stakeToken], 'add: duplicated pool');\r\n    require(_stakeToken != address(0), 'add: invalid stake token');\r\n    require(rewardTokens.length == _rewardPerBlocks.length, 'add: invalid length');\r\n\r\n    require(_startBlock > block.number && _endBlock > _startBlock, 'add: invalid blocks');\r\n\r\n    poolInfo[poolLength].stakeToken = _stakeToken;\r\n    poolInfo[poolLength].startBlock = _startBlock;\r\n    poolInfo[poolLength].endBlock = _endBlock;\r\n    poolInfo[poolLength].lastRewardBlock = _startBlock;\r\n\r\n    for(uint256 i = 0; i < _rewardPerBlocks.length; i++) {\r\n      poolInfo[poolLength].poolRewardData[i] = PoolRewardData({\r\n        rewardPerBlock: _rewardPerBlocks[i],\r\n        accRewardPerShare: 0\r\n      });\r\n    }\r\n\r\n    poolLength++;\r\n\r\n    poolExists[_stakeToken] = true;\r\n\r\n    emit AddNewPool(_stakeToken, _startBlock, _endBlock, _rewardPerBlocks);\r\n  }\r\n\r\n  /**\r\n   * @dev Renew a pool to start another liquidity mining program\r\n   * @param _pid: id of the pool to renew, must be pool that has not started or already ended\r\n   * @param _startBlock: block where the reward starts\r\n   * @param _endBlock: block where the reward ends\r\n   * @param _rewardPerBlocks: amount of reward token per block for the pool\r\n   *   0 if we want to stop the pool from accumulating rewards\r\n   */\r\n  function renewPool(\r\n    uint256 _pid,\r\n    uint32 _startBlock,\r\n    uint32 _endBlock,\r\n    uint256[] calldata _rewardPerBlocks\r\n  ) external override onlyAdmin {\r\n    updatePoolRewards(_pid);\r\n\r\n    PoolInfo storage pool = poolInfo[_pid];\r\n    // check if pool has not started or already ended\r\n    require(\r\n      pool.startBlock > block.number || pool.endBlock < block.number,\r\n      'renew: invalid pool state to renew'\r\n    );\r\n    // checking data of new pool\r\n    require(rewardTokens.length == _rewardPerBlocks.length, 'renew: invalid length');\r\n    require(_startBlock > block.number && _endBlock > _startBlock, 'renew: invalid blocks');\r\n\r\n    pool.startBlock = _startBlock;\r\n    pool.endBlock = _endBlock;\r\n    pool.lastRewardBlock = _startBlock;\r\n\r\n    for(uint256 i = 0; i < _rewardPerBlocks.length; i++) {\r\n      pool.poolRewardData[i].rewardPerBlock = _rewardPerBlocks[i];\r\n    }\r\n\r\n    emit RenewPool(_pid, _startBlock, _endBlock, _rewardPerBlocks);\r\n  }\r\n\r\n  /**\r\n   * @dev Update a pool, allow to change end block, reward per block\r\n   * @param _pid: pool id to be renew\r\n   * @param _endBlock: block where the reward ends\r\n   * @param _rewardPerBlocks: amount of reward token per block for the pool,\r\n   *   0 if we want to stop the pool from accumulating rewards\r\n   */\r\n  function updatePool(\r\n    uint256 _pid,\r\n    uint32 _endBlock,\r\n    uint256[] calldata _rewardPerBlocks\r\n  ) external override onlyAdmin {\r\n    updatePoolRewards(_pid);\r\n\r\n    PoolInfo storage pool = poolInfo[_pid];\r\n\r\n    // should call renew pool if the pool has ended\r\n    require(pool.endBlock > block.number, 'update: pool already ended');\r\n    require(rewardTokens.length == _rewardPerBlocks.length, 'update: invalid length');\r\n    require(_endBlock > block.number && _endBlock > pool.startBlock, 'update: invalid end block');\r\n\r\n    pool.endBlock = _endBlock;\r\n    for(uint256 i = 0; i < _rewardPerBlocks.length; i++) {\r\n      pool.poolRewardData[i].rewardPerBlock = _rewardPerBlocks[i];\r\n    }\r\n\r\n    emit UpdatePool(_pid, _endBlock, _rewardPerBlocks);\r\n  }\r\n\r\n  /**\r\n   * @dev Deposit tokens to accumulate rewards\r\n   * @param _pid: id of the pool\r\n   * @param _amount: amount of stakeToken to be deposited\r\n   * @param _shouldHarvest: whether to harvest the reward or not\r\n   */\r\n  function deposit(\r\n    uint256 _pid,\r\n    uint256 _amount,\r\n    bool _shouldHarvest\r\n  ) external override nonReentrant {\r\n    // update pool rewards, user's rewards\r\n    updatePoolRewards(_pid);\r\n    _updateUserReward(msg.sender, _pid, _shouldHarvest);\r\n\r\n    PoolInfo storage pool = poolInfo[_pid];\r\n    UserInfo storage user = userInfo[_pid][msg.sender];\r\n\r\n    // collect stakeToken\r\n    IERC20Ext(pool.stakeToken).safeTransferFrom(msg.sender, address(this), _amount);\r\n\r\n    // update user staked amount, and total staked amount for the pool\r\n    user.amount = user.amount.add(_amount);\r\n    pool.totalStake = pool.totalStake.add(_amount);\r\n\r\n    emit Deposit(msg.sender, _pid, block.number, _amount);\r\n  }\r\n\r\n  /**\r\n   * @dev Withdraw token (of the sender) from pool, also harvest rewards\r\n   * @param _pid: id of the pool\r\n   * @param _amount: amount of stakeToken to withdraw\r\n   */\r\n  function withdraw(uint256 _pid, uint256 _amount) external override nonReentrant {\r\n    _withdraw(_pid, _amount);\r\n  }\r\n\r\n  /**\r\n   * @dev Withdraw all tokens (of the sender) from pool, also harvest reward\r\n   * @param _pid: id of the pool\r\n   */\r\n  function withdrawAll(uint256 _pid) external override nonReentrant {\r\n    _withdraw(_pid, userInfo[_pid][msg.sender].amount);\r\n  }\r\n\r\n  /**\r\n   * @notice EMERGENCY USAGE ONLY, USER'S REWARDS WILL BE RESET\r\n   * @dev Emergency withdrawal function to allow withdraw all deposited tokens (of the sender)\r\n   *   and reset all rewards\r\n   * @param _pid: id of the pool\r\n   */\r\n  function emergencyWithdraw(uint256 _pid) external override nonReentrant {\r\n    PoolInfo storage pool = poolInfo[_pid];\r\n    UserInfo storage user = userInfo[_pid][msg.sender];\r\n    uint256 amount = user.amount;\r\n\r\n    user.amount = 0;\r\n    for(uint256 i = 0; i < rewardTokens.length; i++) {\r\n      UserRewardData storage rewardData = user.userRewardData[i];\r\n      rewardData.lastRewardPerShare = 0;\r\n      rewardData.unclaimedReward = 0;\r\n    }\r\n\r\n    pool.totalStake = pool.totalStake.sub(amount);\r\n\r\n    if (amount > 0) {\r\n      IERC20Ext(pool.stakeToken).safeTransfer(msg.sender, amount);\r\n    }\r\n\r\n    emit EmergencyWithdraw(msg.sender, _pid, block.number, amount);\r\n  }\r\n\r\n  /**\r\n   * @dev Harvest rewards from multiple pools for the sender\r\n   *   combine rewards from all pools and only transfer once to save gas\r\n   */\r\n  function harvestMultiplePools(uint256[] calldata _pids) external override {\r\n    address[] memory rTokens = rewardTokens;\r\n    uint256[] memory totalRewards = new uint256[](rTokens.length);\r\n    address account = msg.sender;\r\n    uint256 pid;\r\n\r\n    for (uint256 i = 0; i < _pids.length; i++) {\r\n      pid = _pids[i];\r\n      updatePoolRewards(pid);\r\n      // update user reward without harvesting\r\n      _updateUserReward(account, pid, false);\r\n\r\n      for(uint256 j = 0; j < rTokens.length; j++) {\r\n        uint256 reward = userInfo[pid][account].userRewardData[j].unclaimedReward;\r\n        if (reward > 0) {\r\n          totalRewards[j] = totalRewards[j].add(reward);\r\n          userInfo[pid][account].userRewardData[j].unclaimedReward = 0;\r\n          emit Harvest(account, pid, rTokens[j], reward, block.number);\r\n        }\r\n      }\r\n    }\r\n\r\n    for(uint256 i = 0; i < totalRewards.length; i++) {\r\n      if (totalRewards[i] > 0) {\r\n        _lockReward(IERC20Ext(rTokens[i]), account, totalRewards[i]);\r\n      }\r\n    }\r\n  }\r\n\r\n  /**\r\n   * @dev Get pending rewards of a user from a pool, mostly for front-end\r\n   * @param _pid: id of the pool\r\n   * @param _user: user to check for pending rewards\r\n   */\r\n  function pendingRewards(uint256 _pid, address _user)\r\n    external\r\n    override\r\n    view\r\n    returns (uint256[] memory rewards)\r\n  {\r\n    uint256 rTokensLength = rewardTokens.length;\r\n    rewards = new uint256[](rTokensLength);\r\n    PoolInfo storage pool = poolInfo[_pid];\r\n    UserInfo storage user = userInfo[_pid][_user];\r\n    uint256 _totalStake = pool.totalStake;\r\n    uint256 _poolLastRewardBlock = pool.lastRewardBlock;\r\n    uint32 lastAccountedBlock = _lastAccountedRewardBlock(_pid);\r\n    for(uint256 i = 0; i < rTokensLength; i++) {\r\n      uint256 _accRewardPerShare = pool.poolRewardData[i].accRewardPerShare;\r\n      if (lastAccountedBlock > _poolLastRewardBlock && _totalStake != 0) {\r\n        uint256 reward = (lastAccountedBlock - _poolLastRewardBlock)\r\n          .mul(pool.poolRewardData[i].rewardPerBlock);\r\n        _accRewardPerShare = _accRewardPerShare.add(reward.mul(PRECISION) / _totalStake);\r\n      }\r\n\r\n      rewards[i] = user.amount.mul(\r\n        _accRewardPerShare.sub(user.userRewardData[i].lastRewardPerShare)\r\n        ) / PRECISION;\r\n      rewards[i] = rewards[i].add(user.userRewardData[i].unclaimedReward);\r\n    }\r\n  }\r\n\r\n  /**\r\n   * @dev Return list reward tokens\r\n   */\r\n  function getRewardTokens() external override view returns (address[] memory) {\r\n    return rewardTokens;\r\n  }\r\n\r\n  /**\r\n   * @dev Return full details of a pool\r\n   */\r\n  function getPoolInfo(uint256 _pid)\r\n    external override view\r\n    returns (\r\n      uint256 totalStake,\r\n      address stakeToken,\r\n      uint32 startBlock,\r\n      uint32 endBlock,\r\n      uint32 lastRewardBlock,\r\n      uint256[] memory rewardPerBlocks,\r\n      uint256[] memory accRewardPerShares\r\n    )\r\n  {\r\n    PoolInfo storage pool = poolInfo[_pid];\r\n    (\r\n      totalStake,\r\n      stakeToken,\r\n      startBlock,\r\n      endBlock,\r\n      lastRewardBlock\r\n    ) = (\r\n      pool.totalStake,\r\n      pool.stakeToken,\r\n      pool.startBlock,\r\n      pool.endBlock,\r\n      pool.lastRewardBlock\r\n    );\r\n    rewardPerBlocks = new uint256[](rewardTokens.length);\r\n    accRewardPerShares = new uint256[](rewardTokens.length);\r\n    for(uint256 i = 0; i < rewardTokens.length; i++) {\r\n      rewardPerBlocks[i] = pool.poolRewardData[i].rewardPerBlock;\r\n      accRewardPerShares[i] = pool.poolRewardData[i].accRewardPerShare;\r\n    }\r\n  }\r\n\r\n  /**\r\n   * @dev Return user's info including deposited amount and reward data\r\n   */\r\n  function getUserInfo(uint256 _pid, address _account)\r\n    external override view\r\n    returns (\r\n      uint256 amount,\r\n      uint256[] memory unclaimedRewards,\r\n      uint256[] memory lastRewardPerShares\r\n    )\r\n  {\r\n    UserInfo storage user = userInfo[_pid][_account];\r\n    amount = user.amount;\r\n    unclaimedRewards = new uint256[](rewardTokens.length);\r\n    lastRewardPerShares = new uint256[](rewardTokens.length);\r\n    for(uint256 i = 0; i < rewardTokens.length; i++) {\r\n      unclaimedRewards[i] = user.userRewardData[i].unclaimedReward;\r\n      lastRewardPerShares[i] = user.userRewardData[i].lastRewardPerShare;\r\n    }\r\n  }\r\n\r\n  /**\r\n   * @dev Harvest rewards from a pool for the sender\r\n   * @param _pid: id of the pool\r\n   */\r\n  function harvest(uint256 _pid) public override {\r\n    updatePoolRewards(_pid);\r\n    _updateUserReward(msg.sender, _pid, true);\r\n  }\r\n\r\n  /**\r\n   * @dev Update rewards for one pool\r\n   */\r\n  function updatePoolRewards(uint256 _pid) public override {\r\n    require(_pid < poolLength, 'invalid pool id');\r\n    PoolInfo storage pool = poolInfo[_pid];\r\n    uint32 lastAccountedBlock = _lastAccountedRewardBlock(_pid);\r\n    if (lastAccountedBlock <= pool.lastRewardBlock) return;\r\n    uint256 _totalStake = pool.totalStake;\r\n    if (_totalStake == 0) {\r\n      pool.lastRewardBlock = lastAccountedBlock;\r\n      return;\r\n    }\r\n    uint256 numberBlocks = lastAccountedBlock - pool.lastRewardBlock;\r\n    for(uint256 i = 0; i < rewardTokens.length; i++) {\r\n      PoolRewardData storage rewardData = pool.poolRewardData[i];\r\n      uint256 reward = numberBlocks.mul(rewardData.rewardPerBlock);\r\n      rewardData.accRewardPerShare = rewardData.accRewardPerShare.add(reward.mul(PRECISION) / _totalStake);\r\n    }\r\n    pool.lastRewardBlock = lastAccountedBlock;\r\n  }\r\n\r\n  /**\r\n   * @dev Withdraw _amount of stakeToken from pool _pid, also harvest reward for the sender\r\n   */\r\n  function _withdraw(uint256 _pid, uint256 _amount) internal {\r\n    PoolInfo storage pool = poolInfo[_pid];\r\n    UserInfo storage user = userInfo[_pid][msg.sender];\r\n    require(user.amount >= _amount, 'withdraw: insufficient amount');\r\n\r\n    // update pool reward and harvest\r\n    updatePoolRewards(_pid);\r\n    _updateUserReward(msg.sender, _pid, true);\r\n\r\n    user.amount = user.amount.sub(_amount);\r\n    pool.totalStake = pool.totalStake.sub(_amount);\r\n\r\n    IERC20Ext(pool.stakeToken).safeTransfer(msg.sender, _amount);\r\n\r\n    emit Withdraw(msg.sender, _pid, block.number, _amount);\r\n  }\r\n\r\n  /**\r\n   * @dev Update reward of _to address from pool _pid, harvest if needed\r\n   */\r\n  function _updateUserReward(\r\n    address _to,\r\n    uint256 _pid,\r\n    bool shouldHarvest\r\n  ) internal {\r\n    uint256 userAmount = userInfo[_pid][_to].amount;\r\n    uint256 rTokensLength = rewardTokens.length;\r\n\r\n    if (userAmount == 0) {\r\n      // update user last reward per share to the latest pool reward per share\r\n      // by right if user.amount is 0, user.unclaimedReward should be 0 as well,\r\n      // except when user uses emergencyWithdraw function\r\n      for(uint256 i = 0; i < rTokensLength; i++) {\r\n        userInfo[_pid][_to].userRewardData[i].lastRewardPerShare =\r\n          poolInfo[_pid].poolRewardData[i].accRewardPerShare;\r\n      }\r\n      return;\r\n    }\r\n\r\n    for(uint256 i = 0; i < rTokensLength; i++) {\r\n      uint256 lastAccRewardPerShare = poolInfo[_pid].poolRewardData[i].accRewardPerShare;\r\n      UserRewardData storage rewardData = userInfo[_pid][_to].userRewardData[i];\r\n      // user's unclaim reward + user's amount * (pool's accRewardPerShare - user's lastRewardPerShare) / precision\r\n      uint256 _pending = userAmount.mul(lastAccRewardPerShare.sub(rewardData.lastRewardPerShare)) / PRECISION;\r\n      _pending = _pending.add(rewardData.unclaimedReward);\r\n\r\n      rewardData.unclaimedReward = shouldHarvest ? 0 : _pending;\r\n      // update user last reward per share to the latest pool reward per share\r\n      rewardData.lastRewardPerShare = lastAccRewardPerShare;\r\n\r\n      if (shouldHarvest && _pending > 0) {\r\n        _lockReward(IERC20Ext(rewardTokens[i]), _to, _pending);\r\n        emit Harvest(_to, _pid, rewardTokens[i], _pending, block.number);\r\n      }\r\n    }\r\n  }\r\n\r\n  /**\r\n   * @dev Returns last accounted reward block, either the current block number or the endBlock of the pool\r\n   */\r\n  function _lastAccountedRewardBlock(uint256 _pid) internal view returns (uint32 _value) {\r\n    _value = poolInfo[_pid].endBlock;\r\n    if (_value > block.number) _value = block.number.toUint32();\r\n  }\r\n\r\n  /**\r\n   * @dev Call locker contract to lock rewards\r\n   */\r\n  function _lockReward(IERC20Ext token, address _account, uint256 _amount) internal {\r\n    uint256 value = token == IERC20Ext(0) ? _amount : 0;\r\n    rewardLocker.lock{ value: value }(token, _account, _amount);\r\n  }\r\n}",
  "sourcePath": "C:\\Users\\joeln\\Desktop\\NTU\\blockchain\\project\\smartcontract\\contracts\\KyberFairLaunch.sol",
  "compiler": {
    "name": "solc",
    "version": "0.7.6+commit.7338295f.Emscripten.clang"
  },
  "schemaVersion": "3.4.3",
  "updatedAt": "2021-10-11T14:13:33.863Z",
  "devdoc": {
    "kind": "dev",
    "methods": {
      "addPool(address,uint32,uint32,uint256[])": {
        "details": "Add a new lp to the pool. Can only be called by the admin.",
        "params": {
          "_endBlock": ": block where the reward ends",
          "_rewardPerBlocks": ": amount of reward token per block for the pool for each reward token",
          "_stakeToken": ": token to be staked to the pool",
          "_startBlock": ": block where the reward starts"
        }
      },
      "adminWithdraw(uint256,uint256)": {
        "details": "Allow admin to withdraw only reward tokens"
      },
      "claimAdmin()": {
        "details": "Allows the pendingAdmin address to finalize the change admin process."
      },
      "deposit(uint256,uint256,bool)": {
        "details": "Deposit tokens to accumulate rewards",
        "params": {
          "_amount": ": amount of stakeToken to be deposited",
          "_pid": ": id of the pool",
          "_shouldHarvest": ": whether to harvest the reward or not"
        }
      },
      "emergencyWithdraw(uint256)": {
        "details": "Emergency withdrawal function to allow withdraw all deposited tokens (of the sender)   and reset all rewards",
        "params": {
          "_pid": ": id of the pool"
        }
      },
      "getPoolInfo(uint256)": {
        "details": "Return full details of a pool"
      },
      "getRewardTokens()": {
        "details": "Return list reward tokens"
      },
      "getUserInfo(uint256,address)": {
        "details": "Return user's info including deposited amount and reward data"
      },
      "harvest(uint256)": {
        "details": "Harvest rewards from a pool for the sender",
        "params": {
          "_pid": ": id of the pool"
        }
      },
      "harvestMultiplePools(uint256[])": {
        "details": "Harvest rewards from multiple pools for the sender   combine rewards from all pools and only transfer once to save gas"
      },
      "pendingRewards(uint256,address)": {
        "details": "Get pending rewards of a user from a pool, mostly for front-end",
        "params": {
          "_pid": ": id of the pool",
          "_user": ": user to check for pending rewards"
        }
      },
      "renewPool(uint256,uint32,uint32,uint256[])": {
        "details": "Renew a pool to start another liquidity mining program",
        "params": {
          "_endBlock": ": block where the reward ends",
          "_pid": ": id of the pool to renew, must be pool that has not started or already ended",
          "_rewardPerBlocks": ": amount of reward token per block for the pool   0 if we want to stop the pool from accumulating rewards",
          "_startBlock": ": block where the reward starts"
        }
      },
      "transferAdmin(address)": {
        "details": "Allows the current admin to set the pendingAdmin address.",
        "params": {
          "newAdmin": "The address to transfer ownership to."
        }
      },
      "transferAdminQuickly(address)": {
        "details": "Allows the current admin to set the admin in one tx. Useful initial deployment.",
        "params": {
          "newAdmin": "The address to transfer ownership to."
        }
      },
      "updatePool(uint256,uint32,uint256[])": {
        "details": "Update a pool, allow to change end block, reward per block",
        "params": {
          "_endBlock": ": block where the reward ends",
          "_pid": ": pool id to be renew",
          "_rewardPerBlocks": ": amount of reward token per block for the pool,   0 if we want to stop the pool from accumulating rewards"
        }
      },
      "updatePoolRewards(uint256)": {
        "details": "Update rewards for one pool"
      },
      "withdraw(uint256,uint256)": {
        "details": "Withdraw token (of the sender) from pool, also harvest rewards",
        "params": {
          "_amount": ": amount of stakeToken to withdraw",
          "_pid": ": id of the pool"
        }
      },
      "withdrawAll(uint256)": {
        "details": "Withdraw all tokens (of the sender) from pool, also harvest reward",
        "params": {
          "_pid": ": id of the pool"
        }
      }
    },
    "stateVariables": {
      "poolLength": {
        "details": "return the total of pools that have been added"
      }
    },
    "version": 1
  },
  "userdoc": {
    "kind": "user",
    "methods": {
      "emergencyWithdraw(uint256)": {
        "notice": "EMERGENCY USAGE ONLY, USER'S REWARDS WILL BE RESET"
      }
    },
    "notice": "FairLaunch contract for Kyber DMM Liquidity Mining program Allow stakers to stake LP tokens and receive reward tokens Allow extend or renew a pool to continue/restart the LM program When harvesting, rewards will be transferred to a RewardLocker Support multiple reward tokens, reward tokens must be distinct and immutable",
    "version": 1
  }
}