{
  "contractName": "PullPayment",
  "abi": [
    {
      "inputs": [],
      "stateMutability": "nonpayable",
      "type": "constructor"
    },
    {
      "inputs": [
        {
          "internalType": "address payable",
          "name": "payee",
          "type": "address"
        }
      ],
      "name": "withdrawPayments",
      "outputs": [],
      "stateMutability": "nonpayable",
      "type": "function"
    },
    {
      "inputs": [
        {
          "internalType": "address",
          "name": "dest",
          "type": "address"
        }
      ],
      "name": "payments",
      "outputs": [
        {
          "internalType": "uint256",
          "name": "",
          "type": "uint256"
        }
      ],
      "stateMutability": "view",
      "type": "function"
    }
  ],
  "bytecode": "0x608060405234801561001057600080fd5b5060405161001d9061007e565b604051809103906000f080158015610039573d6000803e3d6000fd5b506000806101000a81548173ffffffffffffffffffffffffffffffffffffffff021916908373ffffffffffffffffffffffffffffffffffffffff16021790555061008b565b610cbb8061031783390190565b61027d8061009a6000396000f3fe608060405234801561001057600080fd5b50600436106100365760003560e01c806331b3eb941461003b578063e2982c211461007f575b600080fd5b61007d6004803603602081101561005157600080fd5b81019080803573ffffffffffffffffffffffffffffffffffffffff1690602001909291905050506100d7565b005b6100c16004803603602081101561009557600080fd5b81019080803573ffffffffffffffffffffffffffffffffffffffff16906020019092919050505061017b565b6040518082815260200191505060405180910390f35b60008054906101000a900473ffffffffffffffffffffffffffffffffffffffff1673ffffffffffffffffffffffffffffffffffffffff166351cff8d9826040518263ffffffff1660e01b8152600401808273ffffffffffffffffffffffffffffffffffffffff168152602001915050600060405180830381600087803b15801561016057600080fd5b505af1158015610174573d6000803e3d6000fd5b5050505050565b60008060009054906101000a900473ffffffffffffffffffffffffffffffffffffffff1673ffffffffffffffffffffffffffffffffffffffff1663e3a9db1a836040518263ffffffff1660e01b8152600401808273ffffffffffffffffffffffffffffffffffffffff16815260200191505060206040518083038186803b15801561020557600080fd5b505afa158015610219573d6000803e3d6000fd5b505050506040513d602081101561022f57600080fd5b8101908080519060200190929190505050905091905056fea264697066735822122044853bded0a7a6dff1ad0e560cd04034d1a24b74b9f33b3455f0be7881996bca64736f6c63430007060033608060405234801561001057600080fd5b5060006100216100c460201b60201c565b9050806000806101000a81548173ffffffffffffffffffffffffffffffffffffffff021916908373ffffffffffffffffffffffffffffffffffffffff1602179055508073ffffffffffffffffffffffffffffffffffffffff16600073ffffffffffffffffffffffffffffffffffffffff167f8be0079c531659141344cd1fd0a4f28419497f9722a3daafe3b4186f6b6457e060405160405180910390a3506100cc565b600033905090565b610be0806100db6000396000f3fe6080604052600436106100555760003560e01c806351cff8d91461005a578063715018a6146100ab5780638da5cb5b146100c2578063e3a9db1a14610103578063f2fde38b14610168578063f340fa01146101b9575b600080fd5b34801561006657600080fd5b506100a96004803603602081101561007d57600080fd5b81019080803573ffffffffffffffffffffffffffffffffffffffff1690602001909291905050506101fd565b005b3480156100b757600080fd5b506100c06103c9565b005b3480156100ce57600080fd5b506100d761054f565b604051808273ffffffffffffffffffffffffffffffffffffffff16815260200191505060405180910390f35b34801561010f57600080fd5b506101526004803603602081101561012657600080fd5b81019080803573ffffffffffffffffffffffffffffffffffffffff169060200190929190505050610578565b6040518082815260200191505060405180910390f35b34801561017457600080fd5b506101b76004803603602081101561018b57600080fd5b81019080803573ffffffffffffffffffffffffffffffffffffffff1690602001909291905050506105c1565b005b6101fb600480360360208110156101cf57600080fd5b81019080803573ffffffffffffffffffffffffffffffffffffffff1690602001909291905050506107cc565b005b610205610980565b73ffffffffffffffffffffffffffffffffffffffff1660008054906101000a900473ffffffffffffffffffffffffffffffffffffffff1673ffffffffffffffffffffffffffffffffffffffff16146102c5576040517f08c379a00000000000000000000000000000000000000000000000000000000081526004018080602001828103825260208152602001807f4f776e61626c653a2063616c6c6572206973206e6f7420746865206f776e657281525060200191505060405180910390fd5b6000600160008373ffffffffffffffffffffffffffffffffffffffff1673ffffffffffffffffffffffffffffffffffffffff1681526020019081526020016000205490506000600160008473ffffffffffffffffffffffffffffffffffffffff1673ffffffffffffffffffffffffffffffffffffffff16815260200190815260200160002081905550610377818373ffffffffffffffffffffffffffffffffffffffff1661098890919063ffffffff16565b8173ffffffffffffffffffffffffffffffffffffffff167f7084f5476618d8e60b11ef0d7d3f06914655adb8793e28ff7f018d4c76d505d5826040518082815260200191505060405180910390a25050565b6103d1610980565b73ffffffffffffffffffffffffffffffffffffffff1660008054906101000a900473ffffffffffffffffffffffffffffffffffffffff1673ffffffffffffffffffffffffffffffffffffffff1614610491576040517f08c379a00000000000000000000000000000000000000000000000000000000081526004018080602001828103825260208152602001807f4f776e61626c653a2063616c6c6572206973206e6f7420746865206f776e657281525060200191505060405180910390fd5b600073ffffffffffffffffffffffffffffffffffffffff1660008054906101000a900473ffffffffffffffffffffffffffffffffffffffff1673ffffffffffffffffffffffffffffffffffffffff167f8be0079c531659141344cd1fd0a4f28419497f9722a3daafe3b4186f6b6457e060405160405180910390a360008060006101000a81548173ffffffffffffffffffffffffffffffffffffffff021916908373ffffffffffffffffffffffffffffffffffffffff160217905550565b60008060009054906101000a900473ffffffffffffffffffffffffffffffffffffffff16905090565b6000600160008373ffffffffffffffffffffffffffffffffffffffff1673ffffffffffffffffffffffffffffffffffffffff168152602001908152602001600020549050919050565b6105c9610980565b73ffffffffffffffffffffffffffffffffffffffff1660008054906101000a900473ffffffffffffffffffffffffffffffffffffffff1673ffffffffffffffffffffffffffffffffffffffff1614610689576040517f08c379a00000000000000000000000000000000000000000000000000000000081526004018080602001828103825260208152602001807f4f776e61626c653a2063616c6c6572206973206e6f7420746865206f776e657281525060200191505060405180910390fd5b600073ffffffffffffffffffffffffffffffffffffffff168173ffffffffffffffffffffffffffffffffffffffff16141561070f576040517f08c379a0000000000000000000000000000000000000000000000000000000008152600401808060200182810382526026815260200180610b4b6026913960400191505060405180910390fd5b8073ffffffffffffffffffffffffffffffffffffffff1660008054906101000a900473ffffffffffffffffffffffffffffffffffffffff1673ffffffffffffffffffffffffffffffffffffffff167f8be0079c531659141344cd1fd0a4f28419497f9722a3daafe3b4186f6b6457e060405160405180910390a3806000806101000a81548173ffffffffffffffffffffffffffffffffffffffff021916908373ffffffffffffffffffffffffffffffffffffffff16021790555050565b6107d4610980565b73ffffffffffffffffffffffffffffffffffffffff1660008054906101000a900473ffffffffffffffffffffffffffffffffffffffff1673ffffffffffffffffffffffffffffffffffffffff1614610894576040517f08c379a00000000000000000000000000000000000000000000000000000000081526004018080602001828103825260208152602001807f4f776e61626c653a2063616c6c6572206973206e6f7420746865206f776e657281525060200191505060405180910390fd5b60003490506108eb81600160008573ffffffffffffffffffffffffffffffffffffffff1673ffffffffffffffffffffffffffffffffffffffff16815260200190815260200160002054610ac290919063ffffffff16565b600160008473ffffffffffffffffffffffffffffffffffffffff1673ffffffffffffffffffffffffffffffffffffffff168152602001908152602001600020819055508173ffffffffffffffffffffffffffffffffffffffff167f2da466a7b24304f47e87fa2e1e5a81b9831ce54fec19055ce277ca2f39ba42c4826040518082815260200191505060405180910390a25050565b600033905090565b804710156109fe576040517f08c379a000000000000000000000000000000000000000000000000000000000815260040180806020018281038252601d8152602001807f416464726573733a20696e73756666696369656e742062616c616e636500000081525060200191505060405180910390fd5b60008273ffffffffffffffffffffffffffffffffffffffff168260405180600001905060006040518083038185875af1925050503d8060008114610a5e576040519150601f19603f3d011682016040523d82523d6000602084013e610a63565b606091505b5050905080610abd576040517f08c379a000000000000000000000000000000000000000000000000000000000815260040180806020018281038252603a815260200180610b71603a913960400191505060405180910390fd5b505050565b600080828401905083811015610b40576040517f08c379a000000000000000000000000000000000000000000000000000000000815260040180806020018281038252601b8152602001807f536166654d6174683a206164646974696f6e206f766572666c6f77000000000081525060200191505060405180910390fd5b809150509291505056fe4f776e61626c653a206e6577206f776e657220697320746865207a65726f2061646472657373416464726573733a20756e61626c6520746f2073656e642076616c75652c20726563697069656e74206d61792068617665207265766572746564a2646970667358221220ef20516d493deecabbc4c49a83b2b2ceff76bc5dd2cfc9f8490b8dad5f1cfccc64736f6c63430007060033",
  "immutableReferences": {},
  "source": "// SPDX-License-Identifier: MIT\n\npragma solidity ^0.7.0;\n\nimport \"./escrow/Escrow.sol\";\n\n/**\n * @dev Simple implementation of a\n * https://consensys.github.io/smart-contract-best-practices/recommendations/#favor-pull-over-push-for-external-calls[pull-payment]\n * strategy, where the paying contract doesn't interact directly with the\n * receiver account, which must withdraw its payments itself.\n *\n * Pull-payments are often considered the best practice when it comes to sending\n * Ether, security-wise. It prevents recipients from blocking execution, and\n * eliminates reentrancy concerns.\n *\n * TIP: If you would like to learn more about reentrancy and alternative ways\n * to protect against it, check out our blog post\n * https://blog.openzeppelin.com/reentrancy-after-istanbul/[Reentrancy After Istanbul].\n *\n * To use, derive from the `PullPayment` contract, and use {_asyncTransfer}\n * instead of Solidity's `transfer` function. Payees can query their due\n * payments with {payments}, and retrieve them with {withdrawPayments}.\n */\ncontract PullPayment {\n    Escrow private _escrow;\n\n    constructor () {\n        _escrow = new Escrow();\n    }\n\n    /**\n     * @dev Withdraw accumulated payments, forwarding all gas to the recipient.\n     *\n     * Note that _any_ account can call this function, not just the `payee`.\n     * This means that contracts unaware of the `PullPayment` protocol can still\n     * receive funds this way, by having a separate account call\n     * {withdrawPayments}.\n     *\n     * WARNING: Forwarding all gas opens the door to reentrancy vulnerabilities.\n     * Make sure you trust the recipient, or are either following the\n     * checks-effects-interactions pattern or using {ReentrancyGuard}.\n     *\n     * @param payee Whose payments will be withdrawn.\n     */\n    function withdrawPayments(address payable payee) public virtual {\n        _escrow.withdraw(payee);\n    }\n\n    /**\n     * @dev Returns the payments owed to an address.\n     * @param dest The creditor's address.\n     */\n    function payments(address dest) public view returns (uint256) {\n        return _escrow.depositsOf(dest);\n    }\n\n    /**\n     * @dev Called by the payer to store the sent amount as credit to be pulled.\n     * Funds sent in this way are stored in an intermediate {Escrow} contract, so\n     * there is no danger of them being spent before withdrawal.\n     *\n     * @param dest The destination address of the funds.\n     * @param amount The amount to transfer.\n     */\n    function _asyncTransfer(address dest, uint256 amount) internal virtual {\n        _escrow.deposit{ value: amount }(dest);\n    }\n}\n",
  "sourcePath": "C:\\Users\\joeln\\Desktop\\NTU\\blockchain\\project\\smartcontract\\contracts\\@openzeppelin\\contracts\\payment\\PullPayment.sol",
  "compiler": {
    "name": "solc",
    "version": "0.7.6+commit.7338295f.Emscripten.clang"
  },
  "schemaVersion": "3.4.3",
  "updatedAt": "2021-10-11T14:13:33.720Z",
  "devdoc": {
    "details": "Simple implementation of a https://consensys.github.io/smart-contract-best-practices/recommendations/#favor-pull-over-push-for-external-calls[pull-payment] strategy, where the paying contract doesn't interact directly with the receiver account, which must withdraw its payments itself. Pull-payments are often considered the best practice when it comes to sending Ether, security-wise. It prevents recipients from blocking execution, and eliminates reentrancy concerns. TIP: If you would like to learn more about reentrancy and alternative ways to protect against it, check out our blog post https://blog.openzeppelin.com/reentrancy-after-istanbul/[Reentrancy After Istanbul]. To use, derive from the `PullPayment` contract, and use {_asyncTransfer} instead of Solidity's `transfer` function. Payees can query their due payments with {payments}, and retrieve them with {withdrawPayments}.",
    "kind": "dev",
    "methods": {
      "payments(address)": {
        "details": "Returns the payments owed to an address.",
        "params": {
          "dest": "The creditor's address."
        }
      },
      "withdrawPayments(address)": {
        "details": "Withdraw accumulated payments, forwarding all gas to the recipient. Note that _any_ account can call this function, not just the `payee`. This means that contracts unaware of the `PullPayment` protocol can still receive funds this way, by having a separate account call {withdrawPayments}. WARNING: Forwarding all gas opens the door to reentrancy vulnerabilities. Make sure you trust the recipient, or are either following the checks-effects-interactions pattern or using {ReentrancyGuard}.",
        "params": {
          "payee": "Whose payments will be withdrawn."
        }
      }
    },
    "version": 1
  },
  "userdoc": {
    "kind": "user",
    "methods": {},
    "version": 1
  }
}